:020000040800F2
:1000000000400120A9340008352C0008412C0008CC
:10001000472C00084D2C0008532C0008000000005D
:10002000000000000000000000000000592C000843
:10003000652C000800000000712C00087D2C0008D1
:10004000F1340008F1340008F1340008F1340008FC
:10005000F1340008F1340008F1340008F1340008EC
:10006000F1340008F1340008F1340008F1340008DC
:10007000F1340008F1340008F1340008F1340008CC
:10008000F1340008F1340008F1340008F1340008BC
:10009000F1340008F1340008F1340008F1340008AC
:1000A000F1340008F1340008F1340008F13400089C
:1000B000F1340008F1340008F1340008F13400088C
:1000C000F1340008F1340008F1340008F13400087C
:1000D000F1340008F1340008F1340008F13400086C
:1000E000F1340008F1340008F1340008F13400085C
:1000F000F134000800000000F1340008F134000879
:10010000F1340008F1340008F1340008F13400083B
:10011000F1340008F1340008F13400080000000058
:10012000F1340008000000000000000000000000A2
:0C01300000000000000000005FF808F173
:1001400010B5054C237833B9044B13B10448AFF311
:1001500000800123237010BD30000020000000004B
:100160004C35000808B5034B1BB103490348AFF3F6
:10017000008008BD00000000340000204C3500085D
:1001800081F0004102E000BF83F0004330B54FEA48
:1001900041044FEA430594EA050F08BF90EA020FB5
:1001A0001FBF54EA000C55EA020C7FEA645C7FEA48
:1001B000655C00F0E2804FEA5454D4EB5555B8BF6B
:1001C0006D420CDD2C4480EA020281EA030382EADC
:1001D000000083EA010180EA020281EA0303362D6E
:1001E00088BF30BD11F0004F4FEA01314FF4801C41
:1001F0004CEA113102D0404261EB410113F0004F53
:100200004FEA03334CEA133302D0524263EB430309
:1002100094EA050F00F0A780A4F10104D5F1200EA7
:100220000DDB02FA0EFC22FA05F2801841F1000102
:1002300003FA0EF2801843FA05F359410EE0A5F1D6
:1002400020050EF1200E012A03FA0EFC28BF4CF007
:10025000020C43FA05F3C01851EBE37101F00045BD
:1002600007D54FF0000EDCF1000C7EEB00006EEBCA
:100270000101B1F5801F1BD3B1F5001F0CD3490854
:100280005FEA30004FEA3C0C04F101044FEA4452AB
:1002900012F5800F80F09A80BCF1004F08BF5FEA32
:1002A000500C50F1000041EB045141EA050130BD12
:1002B0005FEA4C0C404141EB010111F4801FA4F1B5
:1002C0000104E9D191F0000F04BF01460020B1FA0A
:1002D00081F308BF2033A3F10B03B3F120020CDA42
:1002E0000C3208DD02F1140CC2F10C0201FA0CF020
:1002F00021FA02F10CE002F11402D8BFC2F1200C85
:1003000001FA02F120FA0CFCDCBF41EA0C0190403A
:10031000E41AA2BF01EB0451294330BD6FEA040483
:100320001F3C1CDA0C340EDC04F11404C4F120026E
:1003300020FA04F001FA02F340EA030021FA04F380
:1003400045EA030130BDC4F10C04C4F1200220FAD7
:1003500002F001FA04F340EA0300294630BD21FA15
:1003600004F0294630BD94F0000F83F4801306BFDB
:1003700081F480110134013D4EE77FEA645C18BFCF
:100380007FEA655C29D094EA050F08BF90EA020F66
:1003900005D054EA000C04BF1946104630BD91EA5E
:1003A000030F1EBF0021002030BD5FEA545C05D161
:1003B0004000494128BF41F0004130BD14F58004A0
:1003C0003CBF01F5801130BD01F0004545F0FE4114
:1003D00041F470014FF0000030BD7FEA645C1ABF49
:1003E000194610467FEA655C1CBF0B46024650EA80
:1003F000013406BF52EA033591EA030F41F40021AC
:1004000030BD00BF90F0000F04BF0021704730B531
:100410004FF4806404F132044FF000054FF0000106
:1004200050E700BF90F0000F04BF0021704730B5C7
:100430004FF4806404F1320410F0004548BF40429C
:100440004FF000013EE700BF42004FEAE2014FEAF1
:1004500031014FEA02701FBF12F07F4393F07F4FCC
:1004600081F06051704732F07F4208BF704793F0CF
:100470007F4F04BF41F40021704730B54FF46074E2
:1004800001F0004521F000411CE700BF50EA0102E5
:1004900008BF704730B54FF000050AE050EA01028E
:1004A00008BF704730B511F0004502D5404261EBFE
:1004B00041014FF4806404F132045FEA915C3FF43F
:1004C000D8AE4FF003025FEADC0C18BF03325FEADC
:1004D000DC0C18BF033202EBDC02C2F1200300FA8D
:1004E00003FC20FA02F001FA03FE40EA0E0021FAB2
:1004F00002F11444BDE600BF70B54FF0FF0C4CF4A0
:10050000E06C1CEA11541DBF1CEA135594EA0C0F51
:1005100095EA0C0F00F0DEF82C4481EA030621EA8C
:100520004C5123EA4C5350EA013518BF52EA0335C7
:1005300041F4801143F4801338D0A0FB02CE4FF079
:100540000005E1FB02E506F00042E0FB03E54FF0A9
:100550000006E1FB03569CF0000F18BF4EF0010EA1
:10056000A4F1FF04B6F5007F64F5407404D25FEA9D
:100570004E0E6D4146EB060642EAC62141EA555150
:100580004FEAC52040EA5E504FEACE2EB4F1FD0C92
:1005900088BFBCF5E06F1ED8BEF1004F08BF5FEA10
:1005A000500E50F1000041EB045170BD06F00046C2
:1005B00046EA010140EA020081EA0301B4EB5C046F
:1005C000C2BFD4EB0C0541EA045170BD41F4801167
:1005D0004FF0000E013C00F3AB8014F1360FDEBF8C
:1005E000002001F0004170BDC4F10004203C35DA68
:1005F0000C341BDC04F11404C4F1200500FA05F3EB
:1006000020FA04F001FA05F240EA020001F000428B
:1006100021F0004110EBD37021FA04F642EB060101
:100620005EEA430E08BF20EAD37070BDC4F10C042B
:10063000C4F1200500FA04F320FA05F001FA04F2EF
:1006400040EA020001F0004110EBD37041F10001DB
:100650005EEA430E08BF20EAD37070BDC4F12005E6
:1006600000FA05F24EEA020E20FA04F301FA05F24E
:1006700043EA020321FA04F001F0004121FA04F2F6
:1006800020EA020000EBD3705EEA430E08BF20EAC6
:10069000D37070BD94F0000F0FD101F00046400000
:1006A00041EB010111F4801F08BF013CF7D041EA82
:1006B000060195F0000F18BF704703F00046520086
:1006C00043EB030313F4801F08BF013DF7D043EA57
:1006D0000603704794EA0C0F0CEA135518BF95EA0D
:1006E0000C0F0CD050EA410618BF52EA4306D1D194
:1006F00081EA030101F000414FF0000070BD50EAB3
:10070000410606BF1046194652EA430619D094EA3C
:100710000C0F02D150EA013613D195EA0C0F05D126
:1007200052EA03361CBF104619460AD181EA03017A
:1007300001F0004141F0FE4141F470014FF0000032
:1007400070BD41F0FE4141F4780170BD70B54FF0CD
:10075000FF0C4CF4E06C1CEA11541DBF1CEA13554D
:1007600094EA0C0F95EA0C0F00F0A7F8A4EB05042F
:1007700081EA030E52EA03354FEA013100F0888026
:100780004FEA03334FF0805545EA131343EA1263EF
:100790004FEA022245EA111545EA10654FEA0026A4
:1007A0000EF000419D4208BF964244F1FD0404F55D
:1007B000407402D25B084FEA3202B61A65EB0305B9
:1007C0005B084FEA32024FF480104FF4002CB6EB76
:1007D000020E75EB030E22BFB61A754640EA0C00F6
:1007E0005B084FEA3202B6EB020E75EB030E22BF36
:1007F000B61A754640EA5C005B084FEA3202B6EB77
:10080000020E75EB030E22BFB61A754640EA9C0035
:100810005B084FEA3202B6EB020E75EB030E22BF05
:10082000B61A754640EADC0055EA060E18D04FEAC3
:10083000051545EA16754FEA06164FEAC30343EA63
:1008400052734FEAC2025FEA1C1CC0D111F4801F30
:100850000BD141EA00014FF000004FF0004CB6E729
:1008600011F4801F04BF01430020B4F1FD0C88BFC8
:10087000BCF5E06F3FF6AFAEB5EB030C04BFB6EBD3
:10088000020C5FEA500C50F1000041EB045170BDC6
:100890000EF0004E4EEA113114EB5C04C2BFD4EBF3
:1008A0000C0541EA045170BD41F480114FF0000E77
:1008B000013C90E645EA060E8DE60CEA135594EAF3
:1008C0000C0F08BF95EA0C0F3FF43BAF94EA0C0FF6
:1008D0000AD150EA01347FF434AF95EA0C0F7FF46B
:1008E00025AF104619462CE795EA0C0F06D152EABF
:1008F00003353FF4FDAE1046194622E750EA4106A3
:1009000018BF52EA43067FF4C5AE50EA41047FF4B3
:100910000DAF52EA43057FF4EBAE12E74A0011D265
:1009200012F5001211D20DD56FF47873B3EB625249
:100930000ED44FEAC12343F0004343EA505323FA55
:1009400002F070474FF00000704750EA013002D1CA
:100950004FF0FF3070474FF00000704780B582B015
:1009600000AF0023FB71032000F016F9002000F017
:100970000DF80346002B02D00123FB7101E002F0C9
:10098000A3F8FB7918460837BD4680BD80B584B012
:1009900000AF78600023FB73164B1B68002B22D03E
:1009A000154B1A68134B1B684FF47A71B1FBF3F3C4
:1009B000B2FBF3F3184600F016F90346002B0FD1F3
:1009C0007B680F2B09D8002279684FF0FF3000F0C8
:1009D000EEF80A4A7B68136007E00123FB7304E02A
:1009E0000123FB7301E00123FB73FB7B18461037E7
:1009F000BD4680BD0400002028000020000000202B
:100A000080B400AF054B1A68054B1B681344034ABA
:100A1000136000BFBD4680BC704700BF6C01002062
:100A20000400002080B400AF024B1B681846BD468E
:100A300080BC70476C01002080B485B000AF786046
:100A40007B6803F00703FB600C4BDB68BB60BA6894
:100A50004FF6FF031340BB60FB681A02BB681343E9
:100A600043F0BF6343F40033BB60044ABB68D36008
:100A700000BF1437BD4680BC704700BF00ED00E0EA
:100A800080B400AF044BDB681B0A03F00703184671
:100A9000BD4680BC704700BF00ED00E080B483B06D
:100AA00000AF03463960FB7197F90730002B0ADB72
:100AB0003B68DAB20C4997F907301201D2B20B4405
:100AC00083F800230AE03B68DAB20849FB7903F0B7
:100AD0000F03043B1201D2B20B441A7600BF0C374D
:100AE000BD4680BC704700BF00E100E000ED00E0C3
:100AF00080B489B000AFF860B9607A60FB6803F039
:100B00000703FB61FB69C3F10703042B28BF042320
:100B1000BB61FB690433062B02D9FB69033B00E090
:100B200000237B614FF0FF32BB6902FA03F3DA4323
:100B3000BB681A407B699A404FF0FF317B6901FA2C
:100B400003F3D9437B680B40134318462437BD4653
:100B500080BC704780B582B000AF78607B68013B95
:100B6000B3F1807F01D301230FE00A4A7B68013B88
:100B700053600F214FF0FF30FFF790FF054B00222D
:100B80009A60044B07221A60002318460837BD46B6
:100B900080BD00BF10E000E080B582B000AF78609B
:100BA0007868FFF749FF00BF0837BD4680BD80B5B4
:100BB00086B000AF0346B9607A60FB7300237B61A7
:100BC000FFF75EFF78617A68B9687869FFF790FF90
:100BD000024697F90F3011461846FFF75FFF00BF36
:100BE0001837BD4680BD80B582B000AF78607868A8
:100BF000FFF7B0FF034618460837BD4680BD00002A
:100C000080B487B000AF7860396000237B61002337
:100C1000FB6000233B6160E13B681A6801217B694E
:100C200001FA03F31340FB60FB68002B00F05281D4
:100C30003B685B68022B03D03B685B68122B23D1B7
:100C40007B69DA087B68083253F822303B617B69A4
:100C500003F007039B000F2202FA03F3DB433A6918
:100C600013403B613B681A697B6903F007039B00F3
:100C700002FA03F33A6913433B617B69DA087B6844
:100C80000832396943F822107B681B683B617B6935
:100C90005B00032202FA03F3DB433A6913403B6132
:100CA0003B685B6803F003027B695B0002FA03F3B5
:100CB0003A6913433B617B683A691A603B685B6839
:100CC000012B0BD03B685B68022B07D03B685B684D
:100CD000112B03D03B685B68122B30D17B689B687B
:100CE0003B617B695B00032202FA03F3DB433A6951
:100CF00013403B613B68DA687B695B0002FA03F3EF
:100D00003A6913433B617B683A699A607B685B6828
:100D10003B6101227B6902FA03F3DB433A6913402A
:100D20003B613B685B681B0903F001027B6902FAC7
:100D300003F33A6913433B617B683A695A607B6805
:100D4000DB683B617B695B00032202FA03F3DB4350
:100D50003A6913403B613B689A687B695B0002FA21
:100D600003F33A6913433B617B683A69DA603B6895
:100D70005B6803F08053002B00F0AC805D4B1B6A76
:100D80005C4A43F0010313625A4B1B6A03F00103F0
:100D9000BB60BB68584A7B699B08023352F823301A
:100DA0003B617B6903F003039B000F2202FA03F30C
:100DB000DB433A6913403B617B68504A934225D03C
:100DC0007B684F4A93421FD07B684E4A934219D0AA
:100DD0007B684D4A934213D07B684C4A93420DD0B6
:100DE0007B684B4A934207D07B684A4A934201D1C1
:100DF00006230CE007230AE0052308E0042306E0AD
:100E0000032304E0022302E0012300E000237A69C7
:100E100002F00302920093403A6913433B61364962
:100E20007B699B0802333A6941F823203A4B1B68DF
:100E30003B61FB68DB433A6913403B613B685B689D
:100E400003F48033002B03D03A69FB6813433B6102
:100E5000314A3B691360304B5B683B61FB68DB43A5
:100E60003A6913403B613B685B6803F40033002B35
:100E700003D03A69FB6813433B61274A3B695360DF
:100E8000254B9B683B61FB68DB433A6913403B6140
:100E90003B685B6803F48013002B03D03A69FB685E
:100EA00013433B611C4A3B6993601B4BDB683B610E
:100EB000FB68DB433A6913403B613B685B6803F4C2
:100EC0000013002B03D03A69FB6813433B61124ABD
:100ED0003B69D3607B6901337B613B681A687B693E
:100EE00022FA03F3002B7FF497AE00BF1C37BD46F8
:100EF00080BC704700380240000001400000024002
:100F00000004024000080240000C024000100240B1
:100F100000140240001802400004014080B483B075
:100F200000AF78600B467B8013467B707B78002B8C
:100F300003D07A887B689A6103E07B881A047B6817
:100F40009A6100BF0C37BD4680BC704780B588B041
:100F500000AF78607B68002B01D101231DE3944B27
:100F60009B6803F00C03BB61914B9B6803F48033D7
:100F70007B617B681B6803F00103002B7BD0BB699E
:100F8000082B06D0BB690C2B0FD17B69B3F5803FD2
:100F90000BD1874B1B6803F40033002B6AD07B68AE
:100FA0005B68002B66D10123F7E27B685B68012B4D
:100FB00006D17F4B1B687E4A43F4803313602DE0DB
:100FC0007B685B68002B0CD1794B1B68784A23F453
:100FD00080331360764B1B68754A23F480231360BB
:100FE0001CE07B685B68052B0CD1714B1B68704A59
:100FF00043F4802313606E4B1B686D4A43F48033C7
:1010000013600BE06A4B1B68694A23F4803313605A
:10101000674B1B68664A23F4802313607B685B6818
:10102000002B13D0FFF7FEFC386108E0FFF7FAFC55
:1010300002463B69D31A642B01D90323ADE25C4B12
:101040001B6803F40033002BF0D014E0FFF7EAFC38
:10105000386108E0FFF7E6FC02463B69D31A642BCF
:1010600001D9032399E2524B1B6803F40033002B90
:10107000F0D100E000BF7B681B6803F00203002B87
:101080005AD0BB69042B05D0BB690C2B19D17B69E5
:10109000002B16D1464B1B6803F00203002B05D032
:1010A0007B68DB68012B01D0012376E2404B5B6853
:1010B00023F4F8527B681B691B023D4913434B60C4
:1010C0003AE07B68DB68002B20D03A4B01221A60A3
:1010D000FFF7A8FC386108E0FFF7A4FC02463B6973
:1010E000D31A022B01D9032357E2314B1B6803F0BB
:1010F0000203002BF0D02E4B5B6823F4F8527B6880
:101100001B691B022A4913434B6015E0294B00223F
:101110001A60FFF787FC386108E0FFF783FC02469E
:101120003B69D31A022B01D9032336E2204B1B68FB
:1011300003F00203002BF0D17B681B6803F010035F
:10114000002B00F0B880BB69002B70D1184B1B68D6
:1011500003F40073002B05D07B689B69002B01D141
:1011600001231AE27B681A6A114B5B6803F460433F
:101170009A4221D97B681B6A184600F0D5FB0346CA
:10118000002B01D0012308E2094B5B6823F4604285
:101190007B681B6A064913434B60054B5B6823F071
:1011A0007F427B68DB691B06014913434B6020E0EB
:1011B0000038024000004742A44B5B6823F46042C1
:1011C0007B681B6AA14913434B60A04B5B6823F00B
:1011D0007F427B68DB691B069C4913434B607B683D
:1011E0001B6A184600F0A0FB0346002B01D0012328
:1011F000D3E17B681B6A5B0B01334FF4004202FAB8
:1012000003F3924A9268120902F00F0290498A5C35
:10121000D340904A1360904B1B681846FFF7B6FB0B
:101220000346FB73FB7B002B45D0FB7BB5E17B6862
:101230009B69002B29D0894B01221A60FFF7F2FB32
:10124000386108E0FFF7EEFB02463B69D31A022B38
:1012500001D90323A1E17D4B1B6803F40073002B2C
:10126000F0D07A4B5B6823F460427B681B6A774955
:1012700013434B60754B5B6823F07F427B68DB69EF
:101280001B06724913434B6015E0744B00221A6031
:10129000FFF7C8FB386108E0FFF7C4FB02463B6973
:1012A000D31A022B01D9032377E1684B1B6803F49F
:1012B0000073002BF0D17B681B6803F00803002B40
:1012C00030D07B685B69002B16D0654B01221A6019
:1012D000FFF7A8FB386108E0FFF7A4FB02463B6973
:1012E000D31A022B01D9032357E1584B5B6B03F050
:1012F0000203002BF0D015E0594B00221A60FFF7D3
:1013000091FB386108E0FFF78DFB02463B69D31A79
:10131000022B01D9032340E14C4B5B6B03F002032A
:10132000002BF0D17B681B6803F00403002B00F056
:10133000B5800023FB77454B5B6A03F08053002B9D
:101340000DD1424B5B6A414A43F0805353623F4B9D
:101350005B6A03F08053BB60BB680123FB77414BA2
:101360001B6803F48073002B18D13E4B1B683D4A69
:1013700043F480731360FFF755FB386108E0FFF713
:1013800051FB02463B69D31A642B01D9032304E1C4
:10139000344B1B6803F48073002BF0D07B689B6890
:1013A000012B06D1294B5B6B284A43F480735363AE
:1013B0002DE07B689B68002B0CD1244B5B6B234A90
:1013C00023F480735363214B5B6B204A23F48063C7
:1013D00053631CE07B689B68052B0CD11B4B5B6B3C
:1013E0001A4A43F480635363184B5B6B174A43F408
:1013F000807353630BE0154B5B6B144A23F48073CB
:101400005363124B5B6B114A23F4806353637B6815
:101410009B68002B15D0FFF705FB38610AE0FFF74A
:1014200001FB02463B69D31A41F28832934201D94B
:101430000323B2E0054B5B6B03F40073002BEED08B
:1014400023E0FFF7EFFA386119E000BF00380240EF
:1014500070350008280000200000002020004742CE
:101460008006474200700040FFF7DCFA02463B6905
:10147000D31A41F28832934201D903238DE0494BBC
:101480005B6B03F40073002BEED1FB7F012B05D1C6
:10149000444B5B6A434A23F0805353627B685B6A28
:1014A000002B79D0BB690C2B56D07B685B6A022B72
:1014B0003BD13D4B00221A60FFF7B4FA386108E0D7
:1014C000FFF7B0FA02463B69D31A022B01D9032376
:1014D00063E0344B1B6803F00073002BF0D1314BF9
:1014E0009B6823F47D027B68996A7B68DB6A1943F9
:1014F0007B681B6B0B432B4913438B602A4B0122E8
:101500001A60FFF78FFA386108E0FFF78BFA02469E
:101510003B69D31A022B01D903233EE0214B1B6800
:1015200003F00073002BF0D036E01F4B00221A604E
:10153000FFF778FA386108E0FFF774FA02463B6972
:10154000D31A022B01D9032327E0164B1B6803F0A3
:101550000073002BF0D11FE07B685B6A012B01D187
:1015600001231AE00F4B9B687B617B6903F4803297
:101570007B689B6A9A420DD17B6903F470127B6889
:10158000DB6A9A4206D17B6903F440027B681B6BDD
:101590009A4201D0012300E0002318462037BD46BF
:1015A00080BD00BF003802406000474280B584B073
:1015B00000AF786039607B68002B01D101231AE10C
:1015C0008F4B1B6803F001033A689A4219D93B68B4
:1015D000012B05D18A4B1B68894A43F00403136031
:1015E000874B1B6823F0010285493B6813430B605E
:1015F000834B1B6803F001033A689A4201D0012330
:10160000F9E07B681B6803F00203002B08D07D4BD8
:101610009B6823F0F0027B689B687A4913438B60D8
:101620007B681B6803F00103002B00F08E807B6851
:101630005B68022B07D1734B1B6803F40033002B4C
:1016400021D10123D7E07B685B68032B07D16D4B69
:101650001B6803F00073002B15D10123CBE07B68DE
:101660005B68012B07D1674B1B6803F00203002B5B
:1016700009D10123BFE0634B1B6803F40073002B07
:1016800001D10123B7E05F4B9B6823F003027B6825
:101690005B685C4913438B60FFF7C4F9F8607B68B3
:1016A0005B68022B12D10AE0FFF7BCF90246FB6827
:1016B000D31A41F28832934201D903239BE0514B64
:1016C0009B6803F00C03082BEED13EE07B685B685F
:1016D000032B12D10AE0FFF7A5F90246FB68D31AE3
:1016E00041F28832934201D9032384E0454B9B6841
:1016F00003F00C030C2BEED127E07B685B68012B19
:101700001DD10AE0FFF78EF90246FB68D31A41F2B9
:101710008832934201D903236DE03A4B9B6803F072
:101720000C03042BEED110E0FFF77CF90246FB68B6
:10173000D31A41F28832934201D903235BE0314B43
:101740009B6803F00C03002BEED12D4B1B6803F0BC
:1017500001033A689A4219D23B68012B05D1284B04
:101760001B68274A43F004031360254B1B6823F0D2
:10177000010223493B6813430B60214B1B6803F0B4
:1017800001033A689A4201D0012334E07B681B6868
:1017900003F00403002B08D01A4B9B6823F4E0628B
:1017A0007B68DB68174913438B607B681B6803F019
:1017B0000803002B09D0134B9B6823F460527B680D
:1017C0001B69DB000F4913438B6000F023F80146CF
:1017D0000C4B9B681B0903F00F030B4AD35C21FAE7
:1017E00003F30A4A13600A4B1B681846FFF7CEF84A
:1017F0000346FB72FB7A18461037BD4680BD00BF1A
:10180000003C0240003802407035000828000020EB
:101810000000002080B487B000AF264B9B68FB60BF
:10182000FB6803F00C03082B06D00C2B07D0042B0D
:101830002CD1214B3B6137E0204B3B6134E0FB680E
:101840009B0C03F00F031E4AD35CBB60FB689B0D2F
:1018500003F0030301337B60164B9B6803F4803372
:10186000002B08D0BB68154A02FB03F27B68B2FB71
:10187000F3F37B6107E0BB680F4A02FB03F27B686E
:10188000B2FBF3F37B617B693B610DE0094B5B6865
:101890005B0B03F007033B603B6801334FF40042EE
:1018A00002FA03F33B6100BF3B6918461C37BD4693
:1018B00080BC7047003802400024F40000127A0017
:1018C0006435000880B400AF024B1B681846BD4663
:1018D00080BC70472800002080B500AFFFF7F2FF02
:1018E0000146054B9B681B0A03F00703034AD35CC0
:1018F00021FA03F3184680BD003802408035000805
:1019000080B500AFFFF7DEFF0146054B9B68DB0AA1
:1019100003F00703034AD35C21FA03F3184680BDA2
:10192000003802408035000880B487B000AF78608E
:1019300000233B61294B9B6803F0F003002B2CD163
:10194000264B5B6A03F08053002B05D0244B1B68A9
:1019500003F4C0537B6116E0204B5B6A1F4A43F0DF
:10196000805353621D4B5B6A03F08053FB60FB683E
:101970001B4B1B6803F4C0537B61184B5B6A174A0F
:1019800023F0805353627B69B3F5C05F05D17B6858
:10199000B3F5404F01D101233B613B69012B05D1D8
:1019A000104B1B680F4A43F0040313600D4B1B6878
:1019B00023F001020B493B6913430B60094B1B6881
:1019C00003F001033A699A4201D0012300E00023A9
:1019D00018461C37BD4680BC704700BF0038024027
:1019E00000700040003C024080B582B000AF7860DB
:1019F0007B68002B01D1012356E07B6800229A62AC
:101A00007B6893F85130DBB2002B06D17B68002253
:101A100083F85020786801F085F87B68022283F80B
:101A200051207B681B681A687B681B6822F04002A3
:101A30001A607B685A687B689B681A437B68DB681E
:101A40001A437B681B691A437B685B691A437B688E
:101A50009B6903F400731A437B68DB691A437B6854
:101A60001B6A42EA03017B689A6A7B681B680A4327
:101A70001A607B689B691B0C03F004017B685A6A3F
:101A80007B681B680A435A607B681B68DA697B685D
:101A90001B6822F40062DA617B6800225A657B6869
:101AA000012283F85120002318460837BD4680BD27
:101AB00080B588B000AFF860B9603B601346FB802A
:101AC0000023FB77FB6893F85030012B01D10223F0
:101AD0001EE1FB68012283F85020FEF7A3FFB861E6
:101AE000FB88FB82FB6893F85130DBB2012B02D0FC
:101AF0000223FB7703E1BB68002B02D0FB88002B9D
:101B000002D10123FB77FAE0FB68032283F851201E
:101B1000FB6800225A65FB68BA681A63FB68FA889A
:101B20009A86FB68FA88DA86FB6800229A63FB686B
:101B300000229A87FB680022DA87FB6800225A6439
:101B4000FB6800221A64FB689B68B3F5004F07D15D
:101B5000FB681B681A68FB681B6842F480421A60C5
:101B6000FB681B681B6803F04003402B07D0FB6831
:101B70001B681A68FB681B6842F040021A60FB6829
:101B8000DB68B3F5006F4BD1FB685B68002B02D0BC
:101B9000FB8A012B3ED1FB681B6B1A88FB681B6814
:101BA000DA60FB681B6B9A1CFB681A63FB68DB8EB0
:101BB0009BB2013B9AB2FB68DA862BE0FB681B689C
:101BC0009B6803F00203022B12D1FB681B6B1A887F
:101BD000FB681B68DA60FB681B6B9A1CFB681A6366
:101BE000FB68DB8E9BB2013B9AB2FB68DA8611E0A0
:101BF000FEF718FF0246BB69D31A3A689A4203D827
:101C00003B68B3F1FF3F02D13B68002B02D10323B5
:101C1000FB7774E0FB68DB8E9BB2002BCED14CE0EF
:101C2000FB685B68002B02D0FB8A012B40D1FB686C
:101C30001A6BFB681B680C3312781A70FB681B6BFD
:101C40005A1CFB681A63FB68DB8E9BB2013B9AB29D
:101C5000FB68DA862CE0FB681B689B6803F00203D4
:101C6000022B13D1FB681A6BFB681B680C331278CC
:101C70001A70FB681B6B5A1CFB681A63FB68DB8ECF
:101C80009BB2013B9AB2FB68DA8611E0FEF7CAFE0E
:101C90000246BB69D31A3A689A4203D83B68B3F14B
:101CA000FF3F02D13B68002B02D10323FB7726E0E4
:101CB000FB68DB8E9BB2002BCDD1BA693968F8681E
:101CC00000F0A4FB0346002B02D0FB6820225A65DB
:101CD000FB689B68002B0AD100233B61FB681B68F3
:101CE000DB683B61FB681B689B683B613B69FB6889
:101CF0005B6D002B02D00123FB7700E000BFFB6887
:101D0000012283F85120FB68002283F85020FB7FDA
:101D100018462037BD4680BD80B588B002AFF86058
:101D2000B9603B601346FB800023FB75FB685B6872
:101D3000B3F5827F12D1FB689B68002B0ED1FB6844
:101D4000042283F85120FA883B6800931346BA684E
:101D5000B968F86800F0E9F80346E2E0FB6893F838
:101D60005030012B01D10223DBE0FB68012283F814
:101D70005020FEF757FE3861FB6893F85130DBB214
:101D8000012B02D00223FB75C2E0BB68002B02D0FE
:101D9000FB88002B02D10123FB75B9E0FB6804220C
:101DA00083F85120FB6800225A65FB68BA689A6381
:101DB000FB68FA889A87FB68FA88DA87FB68002252
:101DC0001A63FB6800229A86FB680022DA86FB68A9
:101DD00000221A64FB6800225A64FB689B68B3F512
:101DE000004F07D1FB681B681A68FB681B6822F468
:101DF00080421A60FB681B681B6803F04003402B9D
:101E000007D0FB681B681A68FB681B6842F0400239
:101E10001A60FB68DB68002B62D12EE0FB681B6850
:101E20009B6803F00103012B15D1FB681B6803F1CC
:101E30000C02FB689B6B1278D2B21A70FB689B6B2A
:101E40005A1CFB689A63FB68DB8F9BB2013B9AB21A
:101E5000FB68DA8711E0FEF7E5FD02463B69D31A1D
:101E60003A689A4203D83B68B3F1FF3F02D13B681E
:101E7000002B02D10323FB754AE0FB68DB8F9BB28A
:101E8000002BCBD131E0FB681B689B6803F001039A
:101E9000012B13D1FB681B68DA68FB689B6B92B25D
:101EA0001A80FB689B6B9A1CFB689A63FB68DB8F4C
:101EB0009BB2013B9AB2FB68DA8711E0FEF7B2FDF4
:101EC00002463B69D31A3A689A4203D83B68B3F199
:101ED000FF3F02D13B68002B02D10323FB7517E0C3
:101EE000FB68DB8F9BB2002BCDD13A693968F8686B
:101EF00000F027FA0346002B02D0FB6820225A6527
:101F0000FB685B6D002B02D00123FB7500E000BF76
:101F1000FB68012283F85120FB68002283F85020DF
:101F2000FB7D18461837BD4680BD80B58CB000AF2C
:101F3000F860B9607A607B800123FB62002387F838
:101F40002B30FB6893F85030012B01D102238AE13A
:101F5000FB68012283F85020FEF764FD7862FB687D
:101F600093F8513087F82330FB685B68FB617B880E
:101F70007B8397F82330012B0FD0FB69B3F5827F69
:101F800007D1FB689B68002B03D197F82330042B03
:101F900003D0022387F82B305BE1BB68002B05D010
:101FA0007B68002B02D07B88002B03D1012387F8AC
:101FB0002B304EE1FB6893F85130DBB2042B03D099
:101FC000FB68052283F85120FB6800225A65FB68F4
:101FD0007A689A63FB687A88DA87FB687A889A87D6
:101FE000FB68BA681A63FB687A88DA86FB687A88C5
:101FF0009A86FB6800221A64FB6800225A64FB6818
:102000001B681B6803F04003402B07D0FB681B686C
:102010001A68FB681B6842F040021A60FB68DB68C4
:10202000B3F5006F78D1FB685B68002B02D07B8B27
:10203000012B66D1FB681B6B1A88FB681B68DA6092
:10204000FB681B6B9A1CFB681A63FB68DB8E9BB2F8
:10205000013B9AB2FB68DA8653E0FB681B689B6819
:1020600003F00203022B1BD1FB68DB8E9BB2002B1B
:1020700016D0FB6A012B13D1FB681B6B1A88FB6817
:102080001B68DA60FB681B6B9A1CFB681A63FB68B1
:10209000DB8E9BB2013B9AB2FB68DA860023FB62BF
:1020A000FB681B689B6803F00103012B19D1FB68D7
:1020B000DB8F9BB2002B14D0FB681B68DA68FB68CF
:1020C0009B6B92B21A80FB689B6B9A1CFB689A63AD
:1020D000FB68DB8F9BB2013B9AB2FB68DA87012376
:1020E000FB62FEF79FFC02467B6AD31ABA6B9A42E8
:1020F00007D8BB6BB3F1FF3F03D0032387F82B3026
:10210000A7E0FB68DB8E9BB2002BA6D1FB68DB8FC0
:102110009BB2002BA1D17CE0FB685B68002B02D056
:102120007B8B012B6BD1FB681A6BFB681B680C3334
:1021300012781A70FB681B6B5A1CFB681A63FB68E9
:10214000DB8E9BB2013B9AB2FB68DA8657E0FB68F4
:102150001B689B6803F00203022B1CD1FB68DB8E1B
:102160009BB2002B17D0FB6A012B14D1FB681A6BB2
:10217000FB681B680C3312781A70FB681B6B5A1CC7
:10218000FB681A63FB68DB8E9BB2013B9AB2FB686B
:10219000DA860023FB62FB681B689B6803F001037F
:1021A000012B19D1FB68DB8F9BB2002B14D0FB688D
:1021B0001B68DA68FB689B6BD2B21A70FB689B6B7A
:1021C0005A1CFB689A63FB68DB8F9BB2013B9AB297
:1021D000FB68DA870123FB62FEF724FC02467B6A78
:1021E000D31ABA6B9A4203D8BB6BB3F1FF3F02D14B
:1021F000BB6B002B03D1032387F82B3029E0FB684E
:10220000DB8E9BB2002BA2D1FB68DB8F9BB2002B35
:102210009DD17A6AB96BF86800F0F8F80346002B94
:1022200006D0012387F82B30FB6820225A6510E086
:10223000FB689B68002B0BD100237B61FB681B684C
:10224000DB687B61FB681B689B687B617B6900E0E6
:1022500000BFFB68012283F85120FB68002283F84D
:10226000502097F82B3018463037BD4680BD80B5DA
:1022700084B000AFF860B9603B601346FB714CE07E
:102280003B68B3F1FF3F48D0FEF7CCFB0246BB6989
:10229000D31A3A689A4202D93B68002B3DD1FB68B9
:1022A0001B685A68FB681B6822F0E0025A60FB68F2
:1022B0005B68B3F5827F11D1FB689B68B3F5004F73
:1022C00004D0FB689B68B3F5806F07D1FB681B687F
:1022D0001A68FB681B6822F040021A60FB689B6A60
:1022E000B3F5005F0FD1FB681B681A68FB681B68B9
:1022F00022F400521A60FB681B681A68FB681B68AE
:1023000042F400521A60FB68012283F85120FB68F6
:10231000002283F8502003230FE0FB681B689A68B3
:10232000BB681340BA689A420CBF01230023DBB29A
:102330001A46FB799A42A3D1002318461037BD46AE
:1023400080BD80B586B002AFF860B9607A60FB6886
:102350005B68B3F5827F11D1FB689B68B3F5004FD2
:1023600004D0FB689B68B3F5806F07D1FB681B68DE
:102370001A68FB681B6822F040021A60FB685B6801
:10238000B3F5827F2AD1FB689B68B3F5806F12D0CA
:102390007B680093BB6800228021F868FFF767FF25
:1023A0000346002B2DD0FB685B6D43F02002FB68D9
:1023B0005A65032326E07B680093BB680022012155
:1023C000F868FFF754FF0346002B1AD0FB685B6DDB
:1023D00043F02002FB685A65032313E07B680093F7
:1023E000BB6800220121F868FFF741FF0346002B7C
:1023F00007D0FB685B6D43F02002FB685A6503233E
:1024000000E0002318461037BD4680BD80B586B079
:1024100002AFF860B9607A60FB685B68B3F5827FF1
:1024200012D17B680093BB6800228021F868FFF717
:102430001EFF0346002B20D0FB685B6D43F020029B
:10244000FB685A65032319E0FB6893F85130DBB24F
:10245000052B12D17B680093BB6800220121F8682C
:10246000FFF705FF0346002B07D0FB685B6D43F0C9
:102470002002FB685A65032300E00023184610374A
:10248000BD4680BD80B582B000AF78607B68002B10
:1024900001D101233FE07B6893F83930DBB2002B98
:1024A00006D17B68002283F83820786800F07EFB34
:1024B0007B68242283F839207B681B68DA687B6894
:1024C0001B6822F40052DA60786800F029F87B6813
:1024D0001B681A697B681B6822F490421A617B684A
:1024E0001B685A697B681B6822F02A025A617B6864
:1024F0001B68DA687B681B6842F40052DA607B680C
:102500000022DA637B68202283F839207B6820224E
:1025100083F83A20002318460837BD4680BD0000E6
:1025200080B584B000AF78607B681B681B6923F4BA
:1025300040517B68DA687B681B680A431A617B68D4
:102540009A687B681B691A437B685B691A437B68DE
:10255000DB691343FB607B681B68DB6823F416436D
:1025600023F00C037A681268F9680B43D3607B6828
:102570001B685B6923F440717B689A697B681B6800
:102580000A435A617B68DB69B3F5004F40F0A580D0
:102590007B681B68A44A93424FD1FFF7B1F9B8603A
:1025A000BA6813469B0013449A001A447B685B6820
:1025B0005B00B2FBF3F39D4AA2FB03235B09190105
:1025C000BA6813469B0013449A001A447B685B6800
:1025D0005B00B2FBF3F2954BA3FB02035B096420A3
:1025E00000FB03F3D31ADB003233904AA2FB032330
:1025F0005B095B0003F4F8731944BA6813469B0047
:1026000013449A001A447B685B685B00B2FBF3F2E8
:10261000864BA3FB02035B09642000FB03F3D31A80
:10262000DB003233814AA2FB03235B0903F007027C
:102630007B681B680A449A60F1E0FFF74DF9B860C7
:10264000BA6813469B0013449A001A447B685B687F
:102650005B00B2FBF3F3754AA2FB03235B0919018C
:10266000BA6813469B0013449A001A447B685B685F
:102670005B00B2FBF3F26D4BA3FB02035B0964202A
:1026800000FB03F3D31ADB003233684AA2FB0323B7
:102690005B095B0003F4F8731944BA6813469B00A6
:1026A00013449A001A447B685B685B00B2FBF3F248
:1026B0005E4BA3FB02035B09642000FB03F3D31A08
:1026C000DB003233594AA2FB03235B0903F0070204
:1026D0007B681B680A449A60A1E07B681B68524AC9
:1026E00093424ED1FFF70CF9B860BA6813469B00CD
:1026F00013449A001A447B685B689B00B2FBF3F3B7
:102700004A4AA2FB03235B091901BA6813469B00DE
:1027100013449A001A447B685B689B00B2FBF3F297
:10272000424BA3FB02035B09642000FB03F3D31AB3
:102730001B0132333D4AA2FB03235B0903F0F00384
:102740001944BA6813469B0013449A001A447B68E4
:102750005B689B00B2FBF3F2344BA3FB02035B0903
:10276000642000FB03F3D31A1B0132332F4AA2FB70
:1027700003235B0903F00F027B681B680A449A601D
:102780004DE0FFF7A9F8B860BA6813469B00134400
:102790009A001A447B685B689B00B2FBF3F3234A00
:1027A000A2FB03235B091901BA6813469B0013447B
:1027B0009A001A447B685B689B00B2FBF3F21B4BE8
:1027C000A3FB02035B09642000FB03F3D31A1B0184
:1027D0003233164AA2FB03235B0903F0F0031944CA
:1027E000BA6813469B0013449A001A447B685B68DE
:1027F0009B00B2FBF3F20D4BA3FB02035B096420C9
:1028000000FB03F3D31A1B013233084AA2FB032354
:102810005B0903F00F027B681B680A449A6000BFE3
:102820001037BD4680BD00BF003801401F85EB5109
:1028300080B500AFFEF792F800F00AF800F0B6F8A5
:1028400000F08AF800F052F800F0A0FAFCE700006F
:1028500080B592B000AF07F114033422002118466E
:1028600000F06CFE3B4600221A605A609A60DA6003
:102870001A611D4B1B6823F4C0531B4A43F40063C9
:10288000136002237B6101233B6210237B620223DE
:10289000BB630023FB634FF400233B644FF400034E
:1028A0007B6407F114031846FEF750FB0346002B28
:1028B00001D000F003F90F233B6003237B6000236A
:1028C000BB600023FB6000233B613B4601211846AF
:1028D000FEF76CFE0346002B01D000F0EFF800BFBE
:1028E0004837BD4680BD00BF0070004080B500AFD6
:1028F000174B184A1A60164B4FF482725A60144BE9
:1029000000229A60124B0022DA60114B00221A61F9
:102910000F4B00225A610E4B4FF400729A610C4B20
:102920000022DA610A4B00221A62094B00225A6225
:10293000074B00229A62064B0A22DA620448FFF72C
:1029400053F80346002B01D000F0B8F800BF80BD5B
:10295000700100200030014080B500AF114B124AD9
:102960001A60104B4FF4E1325A600E4B00229A600D
:102970000C4B0022DA600B4B00221A61094B0C222F
:102980005A61084B00229A61064B0022DA61054821
:10299000FFF778FD0346002B01D000F08FF800BF51
:1029A00080BD00BFC80100200044004080B58AB04F
:1029B00000AF07F1140300221A605A609A60DA60CF
:1029C0001A61394BDB69384A43F00403D361364B53
:1029D000DB6903F004033B613B69334BDB69324A3B
:1029E00043F02003D361304BDB6903F02003FB602D
:1029F000FB682D4BDB692C4A43F00103D3612A4B62
:102A0000DB6903F00103BB60BB68274BDB69264A27
:102A100043F00203D361244BDB6903F002037B60C4
:102A20007B68002201212148FEF778FA002240212C
:102A30001F48FEF773FA4FF400537B611D4BBB61D7
:102A40000023FB6107F1140319461B48FEF7D8F871
:102A500001237B610123BB610023FB6100233B62F7
:102A600007F1140319461148FEF7CAF830237B61B9
:102A70000023BB610023FB6107F1140319460C48D6
:102A8000FEF7BEF840237B610123BB610023FB619D
:102A900000233B6207F1140319460548FEF7B0F81E
:102AA00000BF2837BD4680BD00380240000002400C
:102AB00000040240000011100008024080B400AF82
:102AC00000BFBD4680BC704780B485B000AF144BDA
:102AD0005B6A134A43F000435362114B5B6A03F095
:102AE0000043FB60FB680E4B1B6A0D4A43F0010379
:102AF00013620B4B1B6A03F00103BB60BB68084BFE
:102B00005B6A074A43F080535362054B5B6A03F0EC
:102B100080537B607B6800BF1437BD4680BC704724
:102B20000038024080B58AB000AF786007F1140326
:102B300000221A605A609A60DA601A617B681B682A
:102B4000174A934227D1174B1B6A164A43F4805306
:102B50001362144B1B6A03F480533B613B69114BB6
:102B6000DB69104A43F00103D3610E4BDB6903F0CC
:102B70000103FB60FB68E0237B610223BB61002350
:102B8000FB6103233B6205237B6207F114031946B3
:102B90000548FEF735F800BF2837BD4680BD00BFA9
:102BA00000300140003802400000024080B58AB089
:102BB00000AF786007F1140300221A605A609A602F
:102BC000DA601A617B681B68174A934227D1174B5A
:102BD0005B6A164A43F400335362144B5B6A03F496
:102BE00000333B613B69114BDB69104A43F0010341
:102BF000D3610E4BDB6903F00103FB60FB680C2320
:102C00007B610223BB610123FB6103233B6207233A
:102C10007B6207F1140319460548FDF7F1FF00BF79
:102C20002837BD4680BD00BF004400400038024048
:102C30000000024080B400AF00BFBD4680BC7047BA
:102C400080B400AFFEE780B400AFFEE780B400AF11
:102C5000FEE780B400AFFEE780B400AF00BFBD4622
:102C600080BC704780B400AF00BFBD4680BC7047D9
:102C700080B400AF00BFBD4680BC704780B500AFD8
:102C8000FDF7BEFE00BF80BD80B582B000AF034639
:102C90000A46FB711346BB71B91DFB790122184628
:102CA00000F014F800BF0837BD4680BD80B582B083
:102CB00000AF03463960FB71FB7901223968184681
:102CC00000F034F800BF0837BD4680BD80B584B041
:102CD00000AF03463960FB711346BB71FB7963F0AB
:102CE0007F03DBB23B73002240210E48FEF716F94A
:102CF00007F10C014FF47A7301220B48FEF7D8FE5E
:102D0000BB799AB24FF47A7339680748FEF7D0FE60
:102D1000012240210348FEF701F900BF1037BD46EC
:102D200080BD00BF000402407001002080B584B067
:102D300000AF03463960FB711346BB71FB7903F0AA
:102D40007F03DBB23B73002240210E48FEF7E6F81A
:102D500007F10C014FF47A7301220B48FEF7A8FE2D
:102D6000BB799AB24FF47A7339680748FEF7D4FFFB
:102D7000012240210348FEF7D1F800BF1037BD46BD
:102D800080BD00BF000402407001002080B500AF8C
:102D90002A4B00221A7000F059F8294B6F2219466D
:102DA0000120FFF7C3FF274B1B685A7A254B1B688E
:102DB00022F07F02D2B25A72224B1B6823221A736E
:102DC0001F4B6F2219460120FFF780FF1E4B1B6827
:102DD000184600F099F8002000F082FA1A4B93F997
:102DE0000430184600F0CCF8174B9B79184600F0D9
:102DF0008BF9154BDB79184600F0CAF9124B1B7A98
:102E0000184600F0F3F9104B5B79184600F04EF9C4
:102E10000D4B5B7A184600F017FA40F2FF3000F0D5
:102E200087FA094B1B7E184600F03CFA012000F09F
:102E3000B3FA012000F024F800BF80BD500100204B
:102E40000D020020080200200800002080B500AF1D
:102E50000A4B1B68432283F82F20084B1B6893F80A
:102E60002F3019463120FFF70FFF044B1B683E330C
:102E700019464220FFF71AFF00BF80BD080200205C
:102E800080B584B000AF0346FB710023FB731B4B7E
:102E90001B685B7803F00703DAB2194B1A70184B02
:102EA0001B78FA799A4225D0FB79032B02D10123B2
:102EB000FB7301E00023FB73124B1B78FA7B9A42F1
:102EC00002D0104AFB7B13700C4B1B685B785BB223
:102ED00023F007035AB297F9073013435AB2074B4E
:102EE0001B68D2B25A70054B1B685B7819460120EB
:102EF000FFF7CAFE00BF1037BD4680BD08020020A4
:102F0000250000202600002090B583B000AF786037
:102F1000194A7B6813607868FDF774FA14A3D3E943
:102F20000023FDF713FC03460C4618462146FDF727
:102F3000F5FC03467B607B681A0C104B1B68D2B211
:102F40009A717B681A0A0D4B1B68D2B2DA710B4B6F
:102F50001B687A68D2B21A72084B1B6806330322C8
:102F600019460620FFF7B2FE00BF0C37BD4690BDE4
:102F70000000000080844E4008000020080200206D
:102F800080B582B000AF0346FB71464B1B68093326
:102F900019460920FFF78AFE424B1B685633194633
:102FA0005A20FFF783FE3F4B1B685B7A5BB2002B16
:102FB00049DA3C4B1B6893F8563003F00703072BA4
:102FC00020D197F90730042B01DC0523FB7197F919
:102FD0000730142B01DD1423FB71324B1B685B7A25
:102FE0005BB223F00F035AB2FB79053BDBB25BB255
:102FF00003F00F035BB213435AB22A4B1B68D2B2E1
:103000005A7241E097F90730012B01DC0223FB7172
:1030100097F90730112B01DD1123FB71214B1B6840
:103020005B7A5BB223F00F035AB2FB79023BDBB24F
:103030005BB203F00F035BB213435AB2194B1B6828
:10304000D2B25A7220E097F90730B3F1FF3F01DAAC
:10305000FF23FB7197F907300E2B01DD0E23FB7167
:10306000104B1B685B7A5BB223F00F035AB2FB79FB
:103070000133DBB25BB203F00F035BB213435AB20E
:10308000084B1B68D2B25A72064B1B685B7A194612
:103090000920FFF7F9FD044AFB79137100BF0837D7
:1030A000BD4680BD080200200800002080B582B027
:1030B00000AF0346FB71124B1B681D3319461D20E0
:1030C000FFF7F4FD0E4B1B685B7F5BB203F03F0321
:1030D0005AB2FB799B015BB213435AB2084B1B688F
:1030E000D2B25A77064B1B685B7F19461D20FFF74B
:1030F000CBFD044AFB79537100BF0837BD4680BD44
:10310000080200200800002080B582B000AF03460E
:10311000FB71FB790C2B02D90C23FB7104E0FB79CA
:10312000052B01D80623FB71FB79062B03D1052063
:1031300000F05AF902E0032000F056F9124B1B6828
:103140001E3319461E20FFF7B1FD0F4B1B689B7FF6
:103150005BB203F00F035AB2FB791B015BB213435E
:103160005AB2094B1B68D2B29A77074B1B689B7FF8
:1031700019461E20FFF788FD044AFB79937100BFB2
:103180000837BD4680BD00BF0802002008000020AF
:1031900080B582B000AF0346FB71124B1B681D3334
:1031A00019461D20FFF782FD0E4B1B685B7F5BB24B
:1031B00023F038035AB2FB79DB005BB213435AB2F7
:1031C000084B1B68D2B25A77064B1B685B7F1946C7
:1031D0001D20FFF759FD044AFB79D37100BF083762
:1031E000BD4680BD080200200800002080B582B0E6
:1031F00000AF0346FB71124B1B681D3319461D209F
:10320000FFF754FD0E4B1B685B7F5BB223F002039C
:103210005AB2FB795B005BB213435AB2084B1B688E
:10322000D2B25A77064B1B685B7F19461D20FFF709
:103230002BFD044AFB79137200BF0837BD4680BDE1
:10324000080200200800002080B582B000AF0346CD
:10325000FB71124B1B681D3319461D20FFF726FD1D
:103260000E4B1B685B7F5BB223F004035AB2FB7901
:103270009B005BB213435AB2084B1B68D2B25A7719
:10328000064B1B685B7F19461D20FFF7FDFC044AB7
:10329000FB79537200BF0837BD4680BD080200208D
:1032A0000800002080B582B000AF0346FB710A4BD6
:1032B0001B68FA7983F82220074B1B6893F82230A9
:1032C00019462220FFF7E0FC044AFB79137600BF81
:1032D0000837BD4680BD00BF08020020080000205E
:1032E00080B582B000AF0346FB71104B1B685633AC
:1032F00019465A20FFF7DAFCFB79002B05D00B4B5F
:103300001B68872283F8562004E0084B1B68842240
:1033100083F85620054B1B6893F8563019465A20FF
:10332000FFF7B2FC00BF0837BD4680BD0802002091
:1033300080B582B000AF0346FB80164B1B681E337E
:10334000022219461E20FFF7F1FC124B1B689B7FDF
:103350005BB223F003035AB2FB881B0A9BB25BB239
:1033600003F003035BB213435AB20A4B1B68D2B299
:103370009A77084B1B68FA88D2B2DA77054B1B683C
:103380001E33022219461E20FFF7A0FC00BF08379B
:10339000BD4680BD0802002080B582B000AF034664
:1033A000FB71104B1B681D3319461D20FFF77EFC77
:1033B0000C4B1B685B7F5BB223F001035AB297F999
:1033C000073013435AB2074B1B68D2B25A77054BEA
:1033D0001B685B7F19461D20FFF756FC00BF0837AE
:1033E000BD4680BD0802002080B582B000AF034614
:1033F000FB71124B1B682F3319463120FFF756FC27
:103400000E4B1B6893F82F305BB223F007035AB2C0
:1034100097F9073013435AB2084B1B68D2B283F8AE
:103420002F20064B1B6893F82F3019463120FFF7E9
:103430002BFC00BF0837BD4680BD00BF080200203E
:1034400080B400AF154B1B68144A43F480731360BB
:10345000124B9A681149124B13408B600F4B1B683B
:103460000E4A23F0885323F0011313600B4B1B68A3
:103470000A4A23F480231360084B9B68074A23F40D
:103480007D039360054B0022DA60064B4FF000622B
:103490009A6000BFBD4680BC704700BF0038024044
:1034A0000CC0FF8800ED00E0002103E00B4B5B58EF
:1034B000435004310A480B4B42189A42F6D30A4A49
:1034C00002E0002342F8043B084B9A42F9D3FFF78D
:1034D000B7FF00F00FF8FFF7ABF970479035000821
:1034E000000000202C000020300000207C02002082
:1034F000FEE7000070B500250C4E0D4CA41BA41077
:10350000A54209D100F022F800250A4E0A4CA41B5E
:10351000A410A54205D170BD56F825309847013555
:10352000EEE756F8253098470135F2E78835000870
:1035300088350008883500088C35000803460244A9
:10354000934200D1704703F8011BF9E7F8B500BFBB
:10355000F8BC08BC9E467047F8B500BFF8BC08BC74
:043560009E467047CC
:10356400030406080C1018203000000000000000BE
:10357400000000000102030406070809000000001F
:043584000102030439
:0435880065010008D1
:04358C0041010008F1
:1035900010000000010000008025DB331402070248
:1035A000010001000400000064000000640000004D
:0C35B000800000000101010068FF1F0006
:04000005080034A912
:00000001FF
