:020000040800F2
:1000000000400120153A0008AD270008B927000874
:10001000BF270008C5270008CB2700080000000004
:10002000000000000000000000000000D1270008D0
:10003000DD27000800000000E9270008F527000878
:100040005D3A00085D3A00085D3A00085D3A000834
:100050005D3A00085D3A00085D3A00085D3A000824
:100060005D3A00085D3A00085D3A00085D3A000814
:100070005D3A00085D3A00085D3A00085D3A000804
:100080005D3A00085D3A00085D3A00085D3A0008F4
:100090005D3A00085D3A00085D3A00085D3A0008E4
:1000A0005D3A00085D3A00085D3A00085D3A0008D4
:1000B0005D3A00085D3A00085D3A00085D3A0008C4
:1000C0005D3A00085D3A00085D3A00085D3A0008B4
:1000D0005D3A00085D3A00085D3A00085D3A0008A4
:1000E0005D3A00085D3A00085D3A00085D3A000894
:1000F0005D3A0008000000005D3A00085D3A000823
:100100005D3A00085D3A00085D3A00085D3A000873
:100110005D3A00085D3A00085D3A00080000000002
:100120005D3A000800000000000000000000000030
:0C01300000000000000000005FF808F173
:1001400010B5054C237833B9044B13B10448AFF311
:1001500000800123237010BD380000200000000043
:10016000D03A000808B5034B1BB103490348AFF36D
:10017000008008BD000000003C000020D03A0008CC
:1001800081F0004102E000BF83F0004330B54FEA48
:1001900041044FEA430594EA050F08BF90EA020FB5
:1001A0001FBF54EA000C55EA020C7FEA645C7FEA48
:1001B000655C00F0E2804FEA5454D4EB5555B8BF6B
:1001C0006D420CDD2C4480EA020281EA030382EADC
:1001D000000083EA010180EA020281EA0303362D6E
:1001E00088BF30BD11F0004F4FEA01314FF4801C41
:1001F0004CEA113102D0404261EB410113F0004F53
:100200004FEA03334CEA133302D0524263EB430309
:1002100094EA050F00F0A780A4F10104D5F1200EA7
:100220000DDB02FA0EFC22FA05F2801841F1000102
:1002300003FA0EF2801843FA05F359410EE0A5F1D6
:1002400020050EF1200E012A03FA0EFC28BF4CF007
:10025000020C43FA05F3C01851EBE37101F00045BD
:1002600007D54FF0000EDCF1000C7EEB00006EEBCA
:100270000101B1F5801F1BD3B1F5001F0CD3490854
:100280005FEA30004FEA3C0C04F101044FEA4452AB
:1002900012F5800F80F09A80BCF1004F08BF5FEA32
:1002A000500C50F1000041EB045141EA050130BD12
:1002B0005FEA4C0C404141EB010111F4801FA4F1B5
:1002C0000104E9D191F0000F04BF01460020B1FA0A
:1002D00081F308BF2033A3F10B03B3F120020CDA42
:1002E0000C3208DD02F1140CC2F10C0201FA0CF020
:1002F00021FA02F10CE002F11402D8BFC2F1200C85
:1003000001FA02F120FA0CFCDCBF41EA0C0190403A
:10031000E41AA2BF01EB0451294330BD6FEA040483
:100320001F3C1CDA0C340EDC04F11404C4F120026E
:1003300020FA04F001FA02F340EA030021FA04F380
:1003400045EA030130BDC4F10C04C4F1200220FAD7
:1003500002F001FA04F340EA0300294630BD21FA15
:1003600004F0294630BD94F0000F83F4801306BFDB
:1003700081F480110134013D4EE77FEA645C18BFCF
:100380007FEA655C29D094EA050F08BF90EA020F66
:1003900005D054EA000C04BF1946104630BD91EA5E
:1003A000030F1EBF0021002030BD5FEA545C05D161
:1003B0004000494128BF41F0004130BD14F58004A0
:1003C0003CBF01F5801130BD01F0004545F0FE4114
:1003D00041F470014FF0000030BD7FEA645C1ABF49
:1003E000194610467FEA655C1CBF0B46024650EA80
:1003F000013406BF52EA033591EA030F41F40021AC
:1004000030BD00BF90F0000F04BF0021704730B531
:100410004FF4806404F132044FF000054FF0000106
:1004200050E700BF90F0000F04BF0021704730B5C7
:100430004FF4806404F1320410F0004548BF40429C
:100440004FF000013EE700BF42004FEAE2014FEAF1
:1004500031014FEA02701FBF12F07F4393F07F4FCC
:1004600081F06051704732F07F4208BF704793F0CF
:100470007F4F04BF41F40021704730B54FF46074E2
:1004800001F0004521F000411CE700BF50EA0102E5
:1004900008BF704730B54FF000050AE050EA01028E
:1004A00008BF704730B511F0004502D5404261EBFE
:1004B00041014FF4806404F132045FEA915C3FF43F
:1004C000D8AE4FF003025FEADC0C18BF03325FEADC
:1004D000DC0C18BF033202EBDC02C2F1200300FA8D
:1004E00003FC20FA02F001FA03FE40EA0E0021FAB2
:1004F00002F11444BDE600BF70B54FF0FF0C4CF4A0
:10050000E06C1CEA11541DBF1CEA135594EA0C0F51
:1005100095EA0C0F00F0DEF82C4481EA030621EA8C
:100520004C5123EA4C5350EA013518BF52EA0335C7
:1005300041F4801143F4801338D0A0FB02CE4FF079
:100540000005E1FB02E506F00042E0FB03E54FF0A9
:100550000006E1FB03569CF0000F18BF4EF0010EA1
:10056000A4F1FF04B6F5007F64F5407404D25FEA9D
:100570004E0E6D4146EB060642EAC62141EA555150
:100580004FEAC52040EA5E504FEACE2EB4F1FD0C92
:1005900088BFBCF5E06F1ED8BEF1004F08BF5FEA10
:1005A000500E50F1000041EB045170BD06F00046C2
:1005B00046EA010140EA020081EA0301B4EB5C046F
:1005C000C2BFD4EB0C0541EA045170BD41F4801167
:1005D0004FF0000E013C00F3AB8014F1360FDEBF8C
:1005E000002001F0004170BDC4F10004203C35DA68
:1005F0000C341BDC04F11404C4F1200500FA05F3EB
:1006000020FA04F001FA05F240EA020001F000428B
:1006100021F0004110EBD37021FA04F642EB060101
:100620005EEA430E08BF20EAD37070BDC4F10C042B
:10063000C4F1200500FA04F320FA05F001FA04F2EF
:1006400040EA020001F0004110EBD37041F10001DB
:100650005EEA430E08BF20EAD37070BDC4F12005E6
:1006600000FA05F24EEA020E20FA04F301FA05F24E
:1006700043EA020321FA04F001F0004121FA04F2F6
:1006800020EA020000EBD3705EEA430E08BF20EAC6
:10069000D37070BD94F0000F0FD101F00046400000
:1006A00041EB010111F4801F08BF013CF7D041EA82
:1006B000060195F0000F18BF704703F00046520086
:1006C00043EB030313F4801F08BF013DF7D043EA57
:1006D0000603704794EA0C0F0CEA135518BF95EA0D
:1006E0000C0F0CD050EA410618BF52EA4306D1D194
:1006F00081EA030101F000414FF0000070BD50EAB3
:10070000410606BF1046194652EA430619D094EA3C
:100710000C0F02D150EA013613D195EA0C0F05D126
:1007200052EA03361CBF104619460AD181EA03017A
:1007300001F0004141F0FE4141F470014FF0000032
:1007400070BD41F0FE4141F4780170BD70B54FF0CD
:10075000FF0C4CF4E06C1CEA11541DBF1CEA13554D
:1007600094EA0C0F95EA0C0F00F0A7F8A4EB05042F
:1007700081EA030E52EA03354FEA013100F0888026
:100780004FEA03334FF0805545EA131343EA1263EF
:100790004FEA022245EA111545EA10654FEA0026A4
:1007A0000EF000419D4208BF964244F1FD0404F55D
:1007B000407402D25B084FEA3202B61A65EB0305B9
:1007C0005B084FEA32024FF480104FF4002CB6EB76
:1007D000020E75EB030E22BFB61A754640EA0C00F6
:1007E0005B084FEA3202B6EB020E75EB030E22BF36
:1007F000B61A754640EA5C005B084FEA3202B6EB77
:10080000020E75EB030E22BFB61A754640EA9C0035
:100810005B084FEA3202B6EB020E75EB030E22BF05
:10082000B61A754640EADC0055EA060E18D04FEAC3
:10083000051545EA16754FEA06164FEAC30343EA63
:1008400052734FEAC2025FEA1C1CC0D111F4801F30
:100850000BD141EA00014FF000004FF0004CB6E729
:1008600011F4801F04BF01430020B4F1FD0C88BFC8
:10087000BCF5E06F3FF6AFAEB5EB030C04BFB6EBD3
:10088000020C5FEA500C50F1000041EB045170BDC6
:100890000EF0004E4EEA113114EB5C04C2BFD4EBF3
:1008A0000C0541EA045170BD41F480114FF0000E77
:1008B000013C90E645EA060E8DE60CEA135594EAF3
:1008C0000C0F08BF95EA0C0F3FF43BAF94EA0C0FF6
:1008D0000AD150EA01347FF434AF95EA0C0F7FF46B
:1008E00025AF104619462CE795EA0C0F06D152EABF
:1008F00003353FF4FDAE1046194622E750EA4106A3
:1009000018BF52EA43067FF4C5AE50EA41047FF4B3
:100910000DAF52EA43057FF4EBAE12E74A0011D265
:1009200012F5001211D20DD56FF47873B3EB625249
:100930000ED44FEAC12343F0004343EA505323FA55
:1009400002F070474FF00000704750EA013002D1CA
:100950004FF0FF3070474FF00000704780B582B015
:1009600000AF0023FB71032000F016F9002000F017
:100970000DF80346002B02D00123FB7101E001F0CA
:10098000A3FEFB7918460837BD4680BD80B584B00C
:1009900000AF78600023FB73164B1B68002B22D03E
:1009A000154B1A68134B1B684FF47A71B1FBF3F3C4
:1009B000B2FBF3F3184600F016F90346002B0FD1F3
:1009C0007B680F2B09D8002279684FF0FF3000F0C8
:1009D000EEF80A4A7B68136007E00123FB7304E02A
:1009E0000123FB7301E00123FB73FB7B18461037E7
:1009F000BD4680BD0400002034000020000000201F
:100A000080B400AF054B1A68054B1B681344034ABA
:100A1000136000BFBD4680BC704700BFAC02002021
:100A20000400002080B400AF024B1B681846BD468E
:100A300080BC7047AC02002080B485B000AF786005
:100A40007B6803F00703FB600C4BDB68BB60BA6894
:100A50004FF6FF031340BB60FB681A02BB681343E9
:100A600043F0BF6343F40033BB60044ABB68D36008
:100A700000BF1437BD4680BC704700BF00ED00E0EA
:100A800080B400AF044BDB681B0A03F00703184671
:100A9000BD4680BC704700BF00ED00E080B483B06D
:100AA00000AF03463960FB7197F90730002B0ADB72
:100AB0003B68DAB20C4997F907301201D2B20B4405
:100AC00083F800230AE03B68DAB20849FB7903F0B7
:100AD0000F03043B1201D2B20B441A7600BF0C374D
:100AE000BD4680BC704700BF00E100E000ED00E0C3
:100AF00080B489B000AFF860B9607A60FB6803F039
:100B00000703FB61FB69C3F10703042B28BF042320
:100B1000BB61FB690433062B02D9FB69033B00E090
:100B200000237B614FF0FF32BB6902FA03F3DA4323
:100B3000BB681A407B699A404FF0FF317B6901FA2C
:100B400003F3D9437B680B40134318462437BD4653
:100B500080BC704780B582B000AF78607B68013B95
:100B6000B3F1807F01D301230FE00A4A7B68013B88
:100B700053600F214FF0FF30FFF790FF054B00222D
:100B80009A60044B07221A60002318460837BD46B6
:100B900080BD00BF10E000E080B582B000AF78609B
:100BA0007868FFF749FF00BF0837BD4680BD80B5B4
:100BB00086B000AF0346B9607A60FB7300237B61A7
:100BC000FFF75EFF78617A68B9687869FFF790FF90
:100BD000024697F90F3011461846FFF75FFF00BF36
:100BE0001837BD4680BD80B582B000AF78607868A8
:100BF000FFF7B0FF034618460837BD4680BD00002A
:100C000080B487B000AF7860396000237B61002337
:100C1000FB6000233B6160E13B681A6801217B694E
:100C200001FA03F31340FB60FB68002B00F05281D4
:100C30003B685B68022B03D03B685B68122B23D1B7
:100C40007B69DA087B68083253F822303B617B69A4
:100C500003F007039B000F2202FA03F3DB433A6918
:100C600013403B613B681A697B6903F007039B00F3
:100C700002FA03F33A6913433B617B69DA087B6844
:100C80000832396943F822107B681B683B617B6935
:100C90005B00032202FA03F3DB433A6913403B6132
:100CA0003B685B6803F003027B695B0002FA03F3B5
:100CB0003A6913433B617B683A691A603B685B6839
:100CC000012B0BD03B685B68022B07D03B685B684D
:100CD000112B03D03B685B68122B30D17B689B687B
:100CE0003B617B695B00032202FA03F3DB433A6951
:100CF00013403B613B68DA687B695B0002FA03F3EF
:100D00003A6913433B617B683A699A607B685B6828
:100D10003B6101227B6902FA03F3DB433A6913402A
:100D20003B613B685B681B0903F001027B6902FAC7
:100D300003F33A6913433B617B683A695A607B6805
:100D4000DB683B617B695B00032202FA03F3DB4350
:100D50003A6913403B613B689A687B695B0002FA21
:100D600003F33A6913433B617B683A69DA603B6895
:100D70005B6803F08053002B00F0AC805D4B1B6A76
:100D80005C4A43F0010313625A4B1B6A03F00103F0
:100D9000BB60BB68584A7B699B08023352F823301A
:100DA0003B617B6903F003039B000F2202FA03F30C
:100DB000DB433A6913403B617B68504A934225D03C
:100DC0007B684F4A93421FD07B684E4A934219D0AA
:100DD0007B684D4A934213D07B684C4A93420DD0B6
:100DE0007B684B4A934207D07B684A4A934201D1C1
:100DF00006230CE007230AE0052308E0042306E0AD
:100E0000032304E0022302E0012300E000237A69C7
:100E100002F00302920093403A6913433B61364962
:100E20007B699B0802333A6941F823203A4B1B68DF
:100E30003B61FB68DB433A6913403B613B685B689D
:100E400003F48033002B03D03A69FB6813433B6102
:100E5000314A3B691360304B5B683B61FB68DB43A5
:100E60003A6913403B613B685B6803F40033002B35
:100E700003D03A69FB6813433B61274A3B695360DF
:100E8000254B9B683B61FB68DB433A6913403B6140
:100E90003B685B6803F48013002B03D03A69FB685E
:100EA00013433B611C4A3B6993601B4BDB683B610E
:100EB000FB68DB433A6913403B613B685B6803F4C2
:100EC0000013002B03D03A69FB6813433B61124ABD
:100ED0003B69D3607B6901337B613B681A687B693E
:100EE00022FA03F3002B7FF497AE00BF1C37BD46F8
:100EF00080BC704700380240000001400000024002
:100F00000004024000080240000C024000100240B1
:100F100000140240001802400004014080B485B073
:100F200000AF78600B467B807B681A697B88134032
:100F3000002B02D00123FB7301E00023FB73FB7B3A
:100F400018461437BD4680BC704780B483B000AFEC
:100F500078600B467B8013467B707B78002B03D038
:100F60007A887B689A6103E07B881A047B689A61BF
:100F700000BF0C37BD4680BC7047000080B588B00C
:100F800000AF78607B68002B01D101231DE3944BF7
:100F90009B6803F00C03BB61914B9B6803F48033A7
:100FA0007B617B681B6803F00103002B7BD0BB696E
:100FB000082B06D0BB690C2B0FD17B69B3F5803FA2
:100FC0000BD1874B1B6803F40033002B6AD07B687E
:100FD0005B68002B66D10123F7E27B685B68012B1D
:100FE00006D17F4B1B687E4A43F4803313602DE0AB
:100FF0007B685B68002B0CD1794B1B68784A23F423
:1010000080331360764B1B68754A23F4802313608A
:101010001CE07B685B68052B0CD1714B1B68704A28
:1010200043F4802313606E4B1B686D4A43F4803396
:1010300013600BE06A4B1B68694A23F4803313602A
:10104000674B1B68664A23F4802313607B685B68E8
:10105000002B13D0FFF7E6FC386108E0FFF7E2FC55
:1010600002463B69D31A642B01D90323ADE25C4BE2
:101070001B6803F40033002BF0D014E0FFF7D2FC20
:10108000386108E0FFF7CEFC02463B69D31A642BB7
:1010900001D9032399E2524B1B6803F40033002B60
:1010A000F0D100E000BF7B681B6803F00203002B57
:1010B0005AD0BB69042B05D0BB690C2B19D17B69B5
:1010C000002B16D1464B1B6803F00203002B05D002
:1010D0007B68DB68012B01D0012376E2404B5B6823
:1010E00023F4F8527B681B691B023D4913434B6094
:1010F0003AE07B68DB68002B20D03A4B01221A6073
:10110000FFF790FC386108E0FFF78CFC02463B6972
:10111000D31A022B01D9032357E2314B1B6803F08A
:101120000203002BF0D02E4B5B6823F4F8527B684F
:101130001B691B022A4913434B6015E0294B00220F
:101140001A60FFF76FFC386108E0FFF76BFC02469E
:101150003B69D31A022B01D9032336E2204B1B68CB
:1011600003F00203002BF0D17B681B6803F010032F
:10117000002B00F0B880BB69002B70D1184B1B68A6
:1011800003F40073002B05D07B689B69002B01D111
:1011900001231AE27B681A6A114B5B6803F460430F
:1011A0009A4221D97B681B6A184600F0A3FB0346CC
:1011B000002B01D0012308E2094B5B6823F4604255
:1011C0007B681B6A064913434B60054B5B6823F041
:1011D0007F427B68DB691B06014913434B6020E0BB
:1011E0000038024000004742A44B5B6823F4604291
:1011F0007B681B6AA14913434B60A04B5B6823F0DB
:101200007F427B68DB691B069C4913434B607B680C
:101210001B6A184600F06EFB0346002B01D0012329
:10122000D3E17B681B6A5B0B01334FF4004202FA87
:1012300003F3924A9268120902F00F0290498A5C05
:10124000D340904A1360904B1B681846FFF79EFBF3
:101250000346FB73FB7B002B45D0FB7BB5E17B6832
:101260009B69002B29D0894B01221A60FFF7DAFB1A
:10127000386108E0FFF7D6FB02463B69D31A022B20
:1012800001D90323A1E17D4B1B6803F40073002BFC
:10129000F0D07A4B5B6823F460427B681B6A774925
:1012A00013434B60754B5B6823F07F427B68DB69BF
:1012B0001B06724913434B6015E0744B00221A6001
:1012C000FFF7B0FB386108E0FFF7ACFB02463B6973
:1012D000D31A022B01D9032377E1684B1B6803F46F
:1012E0000073002BF0D17B681B6803F00803002B10
:1012F00030D07B685B69002B16D0654B01221A60E9
:10130000FFF790FB386108E0FFF78CFB02463B6972
:10131000D31A022B01D9032357E1584B5B6B03F01F
:101320000203002BF0D015E0594B00221A60FFF7A2
:1013300079FB386108E0FFF775FB02463B69D31A79
:10134000022B01D9032340E14C4B5B6B03F00203FA
:10135000002BF0D17B681B6803F00403002B00F026
:10136000B5800023FB77454B5B6A03F08053002B6D
:101370000DD1424B5B6A414A43F0805353623F4B6D
:101380005B6A03F08053BB60BB680123FB77414B72
:101390001B6803F48073002B18D13E4B1B683D4A39
:1013A00043F480731360FFF73DFB386108E0FFF7FB
:1013B00039FB02463B69D31A642B01D9032304E1AC
:1013C000344B1B6803F48073002BF0D07B689B6860
:1013D000012B06D1294B5B6B284A43F4807353637E
:1013E0002DE07B689B68002B0CD1244B5B6B234A60
:1013F00023F480735363214B5B6B204A23F4806397
:1014000053631CE07B689B68052B0CD11B4B5B6B0B
:101410001A4A43F480635363184B5B6B174A43F4D7
:10142000807353630BE0154B5B6B144A23F480739A
:101430005363124B5B6B114A23F4806353637B68E5
:101440009B68002B15D0FFF7EDFA38610AE0FFF733
:10145000E9FA02463B69D31A41F28832934201D934
:101460000323B2E0054B5B6B03F40073002BEED05B
:1014700023E0FFF7D7FA386119E000BF00380240D7
:10148000C03B00083400002000000020200047423C
:101490008006474200700040FFF7C4FA02463B69ED
:1014A000D31A41F28832934201D903238DE0494B8C
:1014B0005B6B03F40073002BEED1FB7F012B05D196
:1014C000444B5B6A434A23F0805353627B685B6AF8
:1014D000002B79D0BB690C2B56D07B685B6A022B42
:1014E0003BD13D4B00221A60FFF79CFA386108E0BF
:1014F000FFF798FA02463B69D31A022B01D903235E
:1015000063E0344B1B6803F00073002BF0D1314BC8
:101510009B6823F47D027B68996A7B68DB6A1943C8
:101520007B681B6B0B432B4913438B602A4B0122B7
:101530001A60FFF777FA386108E0FFF773FA02469E
:101540003B69D31A022B01D903233EE0214B1B68D0
:1015500003F00073002BF0D036E01F4B00221A601E
:10156000FFF760FA386108E0FFF75CFA02463B6972
:10157000D31A022B01D9032327E0164B1B6803F073
:101580000073002BF0D11FE07B685B6A012B01D157
:1015900001231AE00F4B9B687B617B6903F4803267
:1015A0007B689B6A9A420DD17B6903F470127B6859
:1015B000DB6A9A4206D17B6903F440027B681B6BAD
:1015C0009A4201D0012300E0002318462037BD468F
:1015D00080BD00BF003802406000474280B584B043
:1015E00000AF786039607B68002B01D101231AE1DC
:1015F0008F4B1B6803F001033A689A4219D93B6884
:10160000012B05D18A4B1B68894A43F00403136000
:10161000874B1B6823F0010285493B6813430B602D
:10162000834B1B6803F001033A689A4201D00123FF
:10163000F9E07B681B6803F00203002B08D07D4BA8
:101640009B6823F0F0027B689B687A4913438B60A8
:101650007B681B6803F00103002B00F08E807B6821
:101660005B68022B07D1734B1B6803F40033002B1C
:1016700021D10123D7E07B685B68032B07D16D4B39
:101680001B6803F00073002B15D10123CBE07B68AE
:101690005B68012B07D1674B1B6803F00203002B2B
:1016A00009D10123BFE0634B1B6803F40073002BD7
:1016B00001D10123B7E05F4B9B6823F003027B68F5
:1016C0005B685C4913438B60FFF7ACF9F8607B689B
:1016D0005B68022B12D10AE0FFF7A4F90246FB680F
:1016E000D31A41F28832934201D903239BE0514B34
:1016F0009B6803F00C03082BEED13EE07B685B682F
:10170000032B12D10AE0FFF78DF90246FB68D31ACA
:1017100041F28832934201D9032384E0454B9B6810
:1017200003F00C030C2BEED127E07B685B68012BE8
:101730001DD10AE0FFF776F90246FB68D31A41F2A1
:101740008832934201D903236DE03A4B9B6803F042
:101750000C03042BEED110E0FFF764F90246FB689E
:10176000D31A41F28832934201D903235BE0314B13
:101770009B6803F00C03002BEED12D4B1B6803F08C
:1017800001033A689A4219D23B68012B05D1284BD4
:101790001B68274A43F004031360254B1B6823F0A2
:1017A000010223493B6813430B60214B1B6803F084
:1017B00001033A689A4201D0012334E07B681B6838
:1017C00003F00403002B08D01A4B9B6823F4E0625B
:1017D0007B68DB68174913438B607B681B6803F0E9
:1017E0000803002B09D0134B9B6823F460527B68DD
:1017F0001B69DB000F4913438B6000F023F801469F
:101800000C4B9B681B0903F00F030B4AD35C21FAB6
:1018100003F30A4A13600A4B1B681846FFF7B6F831
:101820000346FB72FB7A18461037BD4680BD00BFE9
:10183000003C024000380240C03B00083400002059
:101840000000002080B487B000AF264B9B68FB608F
:10185000FB6803F00C03082B06D00C2B07D0042BDD
:101860002CD1214B3B6137E0204B3B6134E0FB68DE
:101870009B0C03F00F031E4AD35CBB60FB689B0DFF
:1018800003F0030301337B60164B9B6803F4803342
:10189000002B08D0BB68154A02FB03F27B68B2FB41
:1018A000F3F37B6107E0BB680F4A02FB03F27B683E
:1018B000B2FBF3F37B617B693B610DE0094B5B6835
:1018C0005B0B03F007033B603B6801334FF40042BE
:1018D00002FA03F33B6100BF3B6918461C37BD4663
:1018E00080BC7047003802400024F40000127A00E7
:1018F000B43B000880B487B000AF786000233B6140
:10190000294B9B6803F0F003002B2CD1264B5B6A1C
:1019100003F08053002B05D0244B1B6803F4C05305
:101920007B6116E0204B5B6A1F4A43F08053536291
:101930001D4B5B6A03F08053FB60FB681B4B1B680D
:1019400003F4C0537B61184B5B6A174A23F0805342
:1019500053627B69B3F5C05F05D17B68B3F5404F37
:1019600001D101233B613B69012B05D1104B1B6861
:101970000F4A43F0040313600D4B1B6823F0010270
:101980000B493B6913430B60094B1B6803F00103D0
:101990003A699A4201D0012300E0002318461C371F
:1019A000BD4680BC704700BF003802400070004058
:1019B000003C024080B582B000AF78607B68002BAD
:1019C00001D1012356E07B6800229A627B6893F87C
:1019D0005130DBB2002B06D17B68002283F8502007
:1019E000786800F09FFE7B68022283F851207B68B4
:1019F0001B681A687B681B6822F040021A607B68CB
:101A00005A687B689B681A437B68DB681A437B686B
:101A10001B691A437B685B691A437B689B6903F403
:101A200000731A437B68DB691A437B681B6A42EACE
:101A300003017B689A6A7B681B680A431A607B68AB
:101A40009B691B0C03F004017B685A6A7B681B6866
:101A50000A435A607B681B68DA697B681B6822F45A
:101A60000062DA617B6800225A657B68012283F894
:101A70005120002318460837BD4680BD80B588B088
:101A800000AFF860B9603B601346FB800023FB7732
:101A9000FB6893F85030012B01D102231EE1FB6853
:101AA000012283F85020FEF7BDFFB861FB88FB825E
:101AB000FB6893F85130DBB2012B02D00223FB7795
:101AC00003E1BB68002B02D0FB88002B02D101236D
:101AD000FB77FAE0FB68032283F85120FB680022C1
:101AE0005A65FB68BA681A63FB68FA889A86FB68CD
:101AF000FA88DA86FB6800229A63FB6800229A87DC
:101B0000FB680022DA87FB6800225A64FB68002227
:101B10001A64FB689B68B3F5004F07D1FB681B682C
:101B20001A68FB681B6842F480421A60FB681B68F5
:101B30001B6803F04003402B07D0FB681B681A6842
:101B4000FB681B6842F040021A60FB68DB68B3F573
:101B5000006F4BD1FB685B68002B02D0FB8A012B26
:101B60003ED1FB681B6B1A88FB681B68DA60FB6858
:101B70001B6B9A1CFB681A63FB68DB8E9BB2013BF4
:101B80009AB2FB68DA862BE0FB681B689B6803F05F
:101B90000203022B12D1FB681B6B1A88FB681B68BF
:101BA000DA60FB681B6B9A1CFB681A63FB68DB8EB0
:101BB0009BB2013B9AB2FB68DA8611E0FEF732FF76
:101BC0000246BB69D31A3A689A4203D83B68B3F11C
:101BD000FF3F02D13B68002B02D10323FB7774E067
:101BE000FB68DB8E9BB2002BCED14CE0FB685B68C0
:101BF000002B02D0FB8A012B40D1FB681A6BFB68DB
:101C00001B680C3312781A70FB681B6B5A1CFB683C
:101C10001A63FB68DB8E9BB2013B9AB2FB68DA86E3
:101C20002CE0FB681B689B6803F00203022B13D1B6
:101C3000FB681A6BFB681B680C3312781A70FB6820
:101C40001B6B5A1CFB681A63FB68DB8E9BB2013B63
:101C50009AB2FB68DA8611E0FEF7E4FE0246BB6941
:101C6000D31A3A689A4203D83B68B3F1FF3F02D1D6
:101C70003B68002B02D10323FB7726E0FB68DB8E59
:101C80009BB2002BCDD1BA693968F86800F0A4FB8B
:101C90000346002B02D0FB6820225A65FB689B6834
:101CA000002B0AD100233B61FB681B68DB683B61AA
:101CB000FB681B689B683B613B69FB685B6D002BA5
:101CC00002D00123FB7700E000BFFB68012283F80C
:101CD0005120FB68002283F85020FB7F18462037F4
:101CE000BD4680BD80B588B002AFF860B9603B608A
:101CF0001346FB800023FB75FB685B68B3F5827FAE
:101D000012D1FB689B68002B0ED1FB68042283F87C
:101D10005120FA883B6800931346BA68B968F8689E
:101D200000F0E9F80346E2E0FB6893F85030012B3D
:101D300001D10223DBE0FB68012283F85020FEF78B
:101D400071FE3861FB6893F85130DBB2012B02D091
:101D50000223FB75C2E0BB68002B02D0FB88002B7E
:101D600002D10123FB75B9E0FB68042283F85120FE
:101D7000FB6800225A65FB68BA689A63FB68FA88B8
:101D80009A87FB68FA88DA87FB6800221A63FB6887
:101D900000229A86FB680022DA86FB6800221A6419
:101DA000FB6800225A64FB689B68B3F5004F07D1BB
:101DB000FB681B681A68FB681B6822F480421A6083
:101DC000FB681B681B6803F04003402B07D0FB68CF
:101DD0001B681A68FB681B6842F040021A60FB68C7
:101DE000DB68002B62D12EE0FB681B689B6803F068
:101DF0000103012B15D1FB681B6803F10C02FB6882
:101E00009B6B1278D2B21A70FB689B6B5A1CFB68F2
:101E10009A63FB68DB8F9BB2013B9AB2FB68DA875F
:101E200011E0FEF7FFFD02463B69D31A3A689A4279
:101E300003D83B68B3F1FF3F02D13B68002B02D1CE
:101E40000323FB754AE0FB68DB8F9BB2002BCBD1F1
:101E500031E0FB681B689B6803F00103012B13D181
:101E6000FB681B68DA68FB689B6B92B21A80FB68A0
:101E70009B6B9A1CFB689A63FB68DB8F9BB2013BF0
:101E80009AB2FB68DA8711E0FEF7CCFD02463B69A7
:101E9000D31A3A689A4203D83B68B3F1FF3F02D1A4
:101EA0003B68002B02D10323FB7517E0FB68DB8F37
:101EB0009BB2002BCDD13A693968F86800F027FA57
:101EC0000346002B02D0FB6820225A65FB685B6D3D
:101ED000002B02D00123FB7500E000BFFB6801224C
:101EE00083F85120FB68002283F85020FB7D1846C0
:101EF0001837BD4680BD80B58CB000AFF860B960C2
:101F00007A607B800123FB62002387F82B30FB681B
:101F100093F85030012B01D102238AE1FB680122A2
:101F200083F85020FEF77EFD7862FB6893F851300D
:101F300087F82330FB685B68FB617B887B8397F8BD
:101F40002330012B0FD0FB69B3F5827F07D1FB68EB
:101F50009B68002B03D197F82330042B03D0022376
:101F600087F82B305BE1BB68002B05D07B68002B2A
:101F700002D07B88002B03D1012387F82B304EE160
:101F8000FB6893F85130DBB2042B03D0FB680522C9
:101F900083F85120FB6800225A65FB687A689A63CF
:101FA000FB687A88DA87FB687A889A87FB68BA6860
:101FB0001A63FB687A88DA86FB687A889A86FB68F7
:101FC00000221A64FB6800225A64FB681B681B68C5
:101FD00003F04003402B07D0FB681B681A68FB68BE
:101FE0001B6842F040021A60FB68DB68B3F5006FC3
:101FF00078D1FB685B68002B02D07B8B012B66D10C
:10200000FB681B6B1A88FB681B68DA60FB681B6B3C
:102010009A1CFB681A63FB68DB8E9BB2013B9AB289
:10202000FB68DA8653E0FB681B689B6803F00203D9
:10203000022B1BD1FB68DB8E9BB2002B16D0FB6AF8
:10204000012B13D1FB681B6B1A88FB681B68DA60D5
:10205000FB681B6B9A1CFB681A63FB68DB8E9BB2E8
:10206000013B9AB2FB68DA860023FB62FB681B68BF
:102070009B6803F00103012B19D1FB68DB8F9BB236
:10208000002B14D0FB681B68DA68FB689B6B92B26C
:102090001A80FB689B6B9A1CFB689A63FB68DB8F5A
:1020A0009BB2013B9AB2FB68DA870123FB62FEF721
:1020B000B9FC02467B6AD31ABA6B9A4207D8BB6B4B
:1020C000B3F1FF3F03D0032387F82B30A7E0FB6871
:1020D000DB8E9BB2002BA6D1FB68DB8F9BB2002B63
:1020E000A1D17CE0FB685B68002B02D07B8B012BCD
:1020F0006BD1FB681A6BFB681B680C3312781A7083
:10210000FB681B6B5A1CFB681A63FB68DB8E9BB277
:10211000013B9AB2FB68DA8657E0FB681B689B6854
:1021200003F00203022B1CD1FB68DB8E9BB2002B59
:1021300017D0FB6A012B14D1FB681A6BFB681B6874
:102140000C3312781A70FB681B6B5A1CFB681A63FD
:10215000FB68DB8E9BB2013B9AB2FB68DA860023F8
:10216000FB62FB681B689B6803F00103012B19D11C
:10217000FB68DB8F9BB2002B14D0FB681B68DA680E
:10218000FB689B6BD2B21A70FB689B6B5A1CFB6896
:102190009A63FB68DB8F9BB2013B9AB2FB68DA87DC
:1021A0000123FB62FEF73EFC02467B6AD31ABA6B40
:1021B0009A4203D8BB6BB3F1FF3F02D1BB6B002B3C
:1021C00003D1032387F82B3029E0FB68DB8E9BB219
:1021D000002BA2D1FB68DB8F9BB2002B9DD17A6ACA
:1021E000B96BF86800F0F8F80346002B06D001231D
:1021F00087F82B30FB6820225A6510E0FB689B684B
:10220000002B0BD100237B61FB681B68DB687B61C3
:10221000FB681B689B687B617B6900E000BFFB6813
:10222000012283F85120FB68002283F8502097F8A0
:102230002B3018463037BD4680BD80B584B000AF26
:10224000F860B9603B601346FB714CE03B68B3F14A
:10225000FF3F48D0FEF7E6FB0246BB69D31A3A6857
:102260009A4202D93B68002B3DD1FB681B685A6833
:10227000FB681B6822F0E0025A60FB685B68B3F5FC
:10228000827F11D1FB689B68B3F5004F04D0FB68D7
:102290009B68B3F5806F07D1FB681B681A68FB6801
:1022A0001B6822F040021A60FB689B6AB3F5005F6E
:1022B0000FD1FB681B681A68FB681B6822F4005288
:1022C0001A60FB681B681A68FB681B6842F40052BE
:1022D0001A60FB68012283F85120FB68002283F812
:1022E000502003230FE0FB681B689A68BB6813400B
:1022F000BA689A420CBF01230023DBB21A46FB796D
:102300009A42A3D1002318461037BD4680BD80B540
:1023100086B002AFF860B9607A60FB685B68B3F5BD
:10232000827F11D1FB689B68B3F5004F04D0FB6836
:102330009B68B3F5806F07D1FB681B681A68FB6860
:102340001B6822F040021A60FB685B68B3F5827F6D
:102350002AD1FB689B68B3F5806F12D07B6800932D
:10236000BB6800228021F868FFF767FF0346002B57
:102370002DD0FB685B6D43F02002FB685A65032398
:1023800026E07B680093BB6800220121F868FFF714
:1023900054FF0346002B1AD0FB685B6D43F020020C
:1023A000FB685A65032313E07B680093BB68002237
:1023B0000121F868FFF741FF0346002B07D0FB68B7
:1023C0005B6D43F02002FB685A65032300E00023A5
:1023D00018461037BD4680BD80B586B002AFF860A4
:1023E000B9607A60FB685B68B3F5827F12D17B6865
:1023F0000093BB6800228021F868FFF71EFF0346A8
:10240000002B20D0FB685B6D43F02002FB685A650F
:10241000032319E0FB6893F85130DBB2052B12D18E
:102420007B680093BB6800220121F868FFF705FF75
:102430000346002B07D0FB685B6D43F02002FB686E
:102440005A65032300E0002318461037BD4680BDBF
:1024500080B500AFFEF782FA00F016F800F098F8A9
:1024600000F060F8012240210548FEF76EFD01F002
:10247000BBF90521034801F067FA01F083FAFCE794
:10248000000402400800002080B592B000AF07F1C0
:10249000140334220021184601F011FB3B460022B0
:1024A0001A605A609A60DA601A611D4B1B6823F447
:1024B000C0531B4A43F40063136002237B61012372
:1024C0003B6210237B620223BB630023FB634FF458
:1024D00000233B644FF400037B6407F114031846A8
:1024E000FEF74CFD0346002B01D000F0E7F80F2368
:1024F0003B6003237B600023BB600023FB60002361
:102500003B613B4601211846FFF768F80346002B64
:1025100001D000F0D3F800BF4837BD4680BD00BFF2
:102520000070004080B500AF174B184A1A60164B78
:102530004FF482725A60144B00229A60124B0022B0
:10254000DA60114B00221A610F4B00225A610E4BC8
:102550004FF400729A610C4B3822DA610A4B002268
:102560001A62094B00225A62074B00229A62064BFC
:102570000A22DA620448FFF71DFA0346002B01D055
:1025800000F09CF800BF80BDB00200200030014088
:1025900080B58AB000AF07F1140300221A605A60B8
:1025A0009A60DA601A61404BDB693F4A43F00403EA
:1025B000D3613D4BDB6903F004033B613B693A4B5C
:1025C000DB69394A43F02003D361374BDB6903F001
:1025D0002003FB60FB68344BDB69334A43F00103A3
:1025E000D361314BDB6903F00103BB60BB682E4B49
:1025F000DB692D4A43F00203D3612B4BDB6903F007
:1026000002037B607B68002201212848FEF79DFCC5
:10261000002240212648FEF798FC4FF400537B61CE
:10262000244BBB610023FB6107F1140319462248C8
:10263000FEF7E6FA01237B610123BB610023FB6106
:1026400000233B6207F1140319461848FEF7D8FA35
:1026500040F204437B610023BB610023FB6107F16F
:10266000140319461148FEF7CBFA30237B6100238F
:10267000BB610023FB6107F1140319460C48FEF708
:10268000BFFA40237B610123BB610023FB61002370
:102690003B6207F1140319460548FEF7B1FA00BF83
:1026A0002837BD4680BD00BF003802400000024010
:1026B00000040240000011100008024080B400AF86
:1026C00000BFBD4680BC704780B485B000AF144BDE
:1026D0005B6A134A43F000435362114B5B6A03F099
:1026E0000043FB60FB680E4B1B6A0D4A43F001037D
:1026F00013620B4B1B6A03F00103BB60BB68084B02
:102700005B6A074A43F080535362054B5B6A03F0F0
:1027100080537B607B6800BF1437BD4680BC704728
:102720000038024080B58AB000AF786007F114032A
:1027300000221A605A609A60DA601A617B681B682E
:10274000174A934227D1174B1B6A164A43F480530A
:102750001362144B1B6A03F480533B613B69114BBA
:10276000DB69104A43F00103D3610E4BDB6903F0D0
:102770000103FB60FB68E0237B610223BB61002354
:10278000FB6103233B6205237B6207F114031946B7
:102790000548FEF735FA00BF2837BD4680BD00BFAB
:1027A00000300140003802400000024080B400AF19
:1027B00000BFBD4680BC704780B400AFFEE780B468
:1027C00000AFFEE780B400AFFEE780B400AFFEE7E5
:1027D00080B400AF00BFBD4680BC704780B400AF7E
:1027E00000BFBD4680BC704780B400AF00BFBD468F
:1027F00080BC704780B500AFFEF702F900BF80BD16
:1028000080B582B000AF78600B467B80084A7B8839
:102810001380074B1B881A467968064801F044F973
:10282000054B07221A7000BF0837BD4680BD00BFA8
:1028300084010020580000205801002080B400AF1F
:1028400000BFBD4680BC704780B582B000AF034674
:10285000FB71FB79012B05D1012201210648FEF70E
:1028600074FB04E0002201210348FEF76EFB00BF69
:102870000837BD4680BD00BF0000024080B582B071
:1028800000AF03460A46FB711346BB71B91DFB79C5
:102890000122184600F014F800BF0837BD4680BD7D
:1028A00080B582B000AF03463960FB71FB7901222D
:1028B0003968184600F03EF800BF0837BD4680BDB5
:1028C00080B584B000AF03463960FB711346BB711D
:1028D000FB7963F07F03DBB23B7200224021134897
:1028E000FEF733FB07F108014FF47A730122104819
:1028F000FFF7C4F8BB799AB24FF47A7339680C4881
:10290000FFF7BCF80023FB6002E0FB680133FB60CB
:10291000FB68B3F57A7FF8DB012240210348FEF71C
:1029200014FB00BF1037BD4680BD00BF000402404D
:10293000B002002080B584B000AF03463960FB715F
:102940001346BB71FB7903F07F03DBB23B730022BC
:1029500040210E48FEF7F9FA07F10C014FF47A73A3
:1029600001220B48FFF78AF8BB799AB24FF47A73C9
:1029700039680748FFF7B6F9012240210348FEF7FE
:10298000E4FA00BF1037BD4680BD00BF000402401E
:10299000B002002080B582B000AF78600B46FB70BB
:1029A000FB781A4679680020FFF78AFF00BF0837D6
:1029B000BD4680BD80B582B000AF78600B46FB702D
:1029C000FB781A4679680020FFF7B4FF00BF08378C
:1029D000BD4680BD80B500AF04210348FEF79EFAD6
:1029E0000346184680BD00BF0000024080B500AF1E
:1029F00020210348FEF792FA0346184680BD00BF27
:102A00000004024080B500AF10210348FEF786FAAB
:102A10000346184680BD00BF0004024080B400AFEA
:102A200000BF1846BD4680BC7047000080B582B02C
:102A300000AF314B00221A7000F066F82F4B6F2266
:102A400019460120FFF776FF2D4B1B685A7A2C4B55
:102A50001B6822F07F02D2B25A72294B1B682322D4
:102A60001A73264B6F2219460120FFF729FF002316
:102A70007B6002E07B6801337B607B68B3F57A7F23
:102A8000F8DB204B1B68184600F012FC002000F019
:102A9000FBFD1C4B93F90430184600F045FC194B24
:102AA0009B79184600F004FD164BDB79184600F0C0
:102AB00043FD144B1B7A184600F06CFD114B5B79FB
:102AC000184600F0C7FC0F4B5B7A184600F090FDEB
:102AD00040F2FF3000F000FE0A4B1B7E184600F06B
:102AE000B5FD012000F02CFE012000F027F800BF0A
:102AF0000837BD4680BD00BF9002002011030020B2
:102B00000C0300201400002080B500AF0A4B1B68A6
:102B1000432283F82F20084B1B6893F82F30194667
:102B20003120FFF7ABFE044B1B683E3319464220B1
:102B3000FFF7B6FE00BF80BD0C03002080B584B057
:102B400000AF0346FB710023FB731B4B1B685B78D4
:102B500003F00703DAB2194B1A70184B1B78FA7995
:102B60009A4225D0FB79032B02D10123FB7301E0AC
:102B70000023FB73124B1B78FA7B9A4202D0104A57
:102B8000FB7B13700C4B1B685B785BB223F0070375
:102B90005AB297F9073013435AB2074B1B68D2B2A7
:102BA0005A70054B1B685B7819460120FFF766FEDB
:102BB00000BF1037BD4680BD0C030020310000204F
:102BC0003200002080B500AF064B1B680C3319465D
:102BD0000C20FFF765FE034B1B681B7B5B09DBB218
:102BE000184680BD0C03002080B582B000AF78602D
:102BF0000B467B80084A7B881380074B1B881A464C
:102C00007968064800F050FF054B05221A7000BF96
:102C10000837BD4680BD00BFA802002090010020FB
:102C20009002002000000000B0B582B000AF012388
:102C30007B60A54B1B780A2B00F2238301A252F87C
:102C400023F000BF83320008712C0008512D0008CA
:102C5000E32D0008413000084D300008893100089C
:102C6000E131000883320008F931000847320008DA
:102C70000120FFF763FF954B1B689D225A74934B0D
:102C80001B685B7C19461120FFF7F8FD904BDB7A3F
:102C9000002B18D08D4B1B688D4A127B83F82420A3
:102CA0008A4B1B681C3319461C20FFF7F9FD874B24
:102CB0001B681B7F03F03F03864A52F823301846F7
:102CC00000F0F6FA04E0814B1B68FF2283F8242011
:102CD0007E4B1B6893F8243019462420FFF7CEFD65
:102CE0007A4B1B68002283F83C20784B1B6800223B
:102CF00083F83D20754B1B683C3302221946402067
:102D0000FFF7DEFD724B9B7A002B03D00620FFF706
:102D100015FF0FE06D4B1A686C4B1B68D27B5A7322
:102D20006A4B1B685B7B19460D20FFF7A7FD05204A
:102D3000FFF704FF4FF480720021674800F0BFFEE8
:102D4000634B5B69654A13605F4B02221A709FE216
:102D5000FFF740FE0346012B1CD15D4BDB7A002BB5
:102D600011D05A4B1B681C3319461C20FFF798FDE5
:102D7000564B1B681B7F03F03F03564A52F8233023
:102D8000184600F095FA40211220FFF777FD4E4BD0
:102D900003221A70FFF72AFE0346012B40F07382CC
:102DA0004B4BDB7A002B11D0484B1B681C33194668
:102DB0001C20FFF775FD454B1B681B7F03F03F038D
:102DC000444A52F82330184600F072FA02211220C9
:102DD000FFF754FDFFF7F6FE03461A46404B1A7004
:102DE00051E23A4B1B68123319461220FFF758FD87
:102DF000364B1B689B7C03F02003002B0FD0202157
:102E00001220FFF73BFD324B9B7A002B03D02E4B59
:102E100001221A703CE22C4B02221A7038E2FB1C91
:102E200019461920FFF73CFDFB785BB2002B12DA44
:102E3000FB785B429B105BB203F03F035AB2294B15
:102E40001A70284B93F90030DBB25B42DBB25AB206
:102E5000244B1A7005E0FB789B08DBB25AB2214B79
:102E60001A701A4B1B681A3319461A20FFF718FDFF
:102E70001C4B93F90030002B38DA144B1B689B7EF7
:102E80001846FDF7BFFA0EA3D3E90023FDF77CF93E
:102E900003460C4625461C46124B93F90030184653
:102EA000FDF7C0FA02460B4620462946FDF76EF9AB
:102EB00003460C460C4AC2E9003430E0AFF3008010
:102EC0000000000000606140900200200C03002020
:102ED00014000020E83A000890010020A40200201D
:102EE0003000002094020020980200209E4B1B68B6
:102EF0009B7E1846FDF786FA97A3D3E90023FDF7DA
:102F0000FBFA03460C461846214695A3D3E9002355
:102F1000FDF73AF903460C46944AC2E90034944B53
:102F20009B7A002B35D0904B1A688F4B1B68D27B55
:102F30005A738D4B1B685B7B19460D20FFF79EFC77
:102F40008B4B5B7A002B0FD0874B1B6893F822309A
:102F50009AB2884B1A80844B1B6893F8223019462A
:102F60008548FFF727FD5DE07F4B1B68133319464B
:102F70001320FFF795FC7C4B1B68DB7C9AB27D4BE2
:102F80001A80794B1B68DB7C19467B48FFF712FDE2
:102F900048E0754B1B68103319461020FFF780FC82
:102FA000734B5B7A002B1CD06F4B1B6893F822305D
:102FB0009AB2704B1A806C4B1A686B4B1B68127C70
:102FC0005A73694B1B685B7B19460D20FFF756FC53
:102FD000654B1B6893F8223019466748FFF7EAFCF7
:102FE00020E0614B1B68133319461320FFF758FC90
:102FF0005D4B1B68DB7C9AB25E4B1A805A4B1A6899
:10300000594B1B68127C5A73574B1B685B7B1946E4
:103010000D20FFF733FC544B1B68DB7C19465648E8
:10302000FFF7C8FC524B9B7A002B03D0534B012275
:103030001A7002E0514B02221A7002237B6027E1D2
:103040004E4B01221A7003237B6021E10120FFF720
:1030500075FD474BDB7A002B1CD0434B1B68F522D8
:103060005A74414B1B68424A127B83F824203E4B22
:103070001B681C3319461C20FFF712FC3A4B1B68D7
:103080001B7F03F03F033E4A52F82330184600F0FE
:103090000FF908E0344B1B68F7225A74324B1B6857
:1030A000002283F82420304B1B6893F82430194603
:1030B0002420FFF7E3FB2C4B1B685B7C1946112097
:1030C000FFF7DCFB2F4B1A88274B1B68D2B283F823
:1030D0002220254B1B6893F8223019462220FFF747
:1030E000CDFB214B1B6800229A731F4B1B689B7BF7
:1030F00019460E20FFF7C2FB1B4B1A681A4B1B68C0
:10310000927B5A73184B1B685B7B19460D20FFF7A7
:10311000B5FB154B1B6893F8223019461648FFF78C
:1031200039FC114B1B68412283F83C200E4B1B6875
:10313000402283F83D200C4B1B683C330222194689
:103140004020FFF7BDFB0320FFF7F8FC0B4B0622E6
:103150001A709DE0AFF300801B9E5E29CB10F13FFB
:1031600000000000006061400C0300209802002075
:103170001400002092020020900100209002002004
:10318000E83A0008A8020020FFF724FC0346012BC0
:1031900006D108211220FFF771FB404B07221A705D
:1031A000FFF724FC0346012B6FD13D4BDB7A002B4C
:1031B00011D03C4B1B681C3319461C20FFF770FBD9
:1031C000384B1B681B7F03F03F03374A52F823300C
:1031D000184600F06DF802211220FFF74FFB54E073
:1031E0000120FFF7ABFC2D4B00221A7004237B60FB
:1031F0002A4B05221A704BE00120FFF79FFC294B58
:103200001B68FA225A74274B1B685B7C19461120F5
:10321000FFF734FB234B1B68002283F83C20214B33
:103220001B68002283F83D201E4B1B683C330222A2
:1032300019464020FFF744FB0720FFF77FFC174BA0
:103240000A221A7024E0FFF7DDFB0346012B1ED192
:1032500004211220FFF712FBFFF7E0FB0346012BCE
:1032600009D101211220FFF709FB0C4B01221A7032
:1032700008237B600BE0094B00221A7007237B6058
:1032800005E000BF04E000BF02E000BF00E000BFB7
:103290007B6818460837BD46B0BD00BF90020020CD
:1032A000140000200C030020E83A00080000000091
:1032B00090B583B000AF7860194A7B681360786876
:1032C000FDF7A0F814A3D3E90023FDF73FFA034666
:1032D0000C4618462146FDF721FB03467B607B68C0
:1032E0001A0C104B1B68D2B29A717B681A0A0D4BEC
:1032F0001B68D2B2DA710B4B1B687A68D2B21A72B1
:10330000084B1B680633032219460620FFF7D8FA3C
:1033100000BF0C37BD4690BD0000000080844E40C9
:10332000140000200C03002080B582B000AF0346DB
:10333000FB71464B1B68093319460920FFF7B0FAA9
:10334000424B1B68563319465A20FFF7A9FA3F4BE8
:103350001B685B7A5BB2002B49DA3C4B1B6893F825
:10336000563003F00703072B20D197F90730042BC1
:1033700001DC0523FB7197F90730142B01DD1423C1
:10338000FB71324B1B685B7A5BB223F00F035AB2BE
:10339000FB79053BDBB25BB203F00F035BB2134377
:1033A0005AB22A4B1B68D2B25A7241E097F90730E1
:1033B000012B01DC0223FB7197F90730112B01DD92
:1033C0001123FB71214B1B685B7A5BB223F00F0367
:1033D0005AB2FB79023BDBB25BB203F00F035BB284
:1033E00013435AB2194B1B68D2B25A7220E097F9B4
:1033F0000730B3F1FF3F01DAFF23FB7197F9073084
:103400000E2B01DD0E23FB71104B1B685B7A5BB248
:1034100023F00F035AB2FB790133DBB25BB203F046
:103420000F035BB213435AB2084B1B68D2B25A72F5
:10343000064B1B685B7A19460920FFF71FFA044AFE
:10344000FB79137100BF0837BD4680BD0C03002017
:103450001400002080B582B000AF0346FB71124B10
:103460001B681D3319461D20FFF71AFA0E4B1B6807
:103470005B7F5BB203F03F035AB2FB799B015BB207
:1034800013435AB2084B1B68D2B25A77064B1B68DB
:103490005B7F19461D20FFF7F1F9044AFB79537150
:1034A00000BF0837BD4680BD0C030020140000207B
:1034B00080B582B000AF0346FB71FB790C2B02D9BB
:1034C0000C23FB7104E0FB79052B01D80623FB716B
:1034D000FB79062B03D1052000F05AF902E0032006
:1034E00000F056F9124B1B681E3319461E20FFF7D9
:1034F000D7F90F4B1B689B7F5BB203F00F035AB2E7
:10350000FB791B015BB213435AB2094B1B68D2B261
:103510009A77074B1B689B7F19461E20FFF7AEF971
:10352000044AFB79937100BF0837BD4680BD00BFD8
:103530000C0300201400002080B582B000AF0346C9
:10354000FB71124B1B681D3319461D20FFF7A8F9AC
:103550000E4B1B685B7F5BB223F038035AB2FB79DA
:10356000DB005BB213435AB2084B1B68D2B25A77E6
:10357000064B1B685B7F19461D20FFF77FF9044A45
:10358000FB79D37100BF0837BD4680BD0C03002016
:103590001400002080B582B000AF0346FB71124BCF
:1035A0001B681D3319461D20FFF77AF90E4B1B6867
:1035B0005B7F5BB223F002035AB2FB795B005BB224
:1035C00013435AB2084B1B68D2B25A77064B1B689A
:1035D0005B7F19461D20FFF751F9044AFB791372EE
:1035E00000BF0837BD4680BD0C030020140000203A
:1035F00080B582B000AF0346FB71124B1B681D33D0
:1036000019461D20FFF74CF90E4B1B685B7F5BB220
:1036100023F004035AB2FB799B005BB213435AB206
:10362000084B1B68D2B25A77064B1B685B7F194662
:103630001D20FFF723F9044AFB79537200BF0837B6
:10364000BD4680BD0C0300201400002080B582B070
:1036500000AF0346FB710A4B1B68FA7983F82220FE
:10366000074B1B6893F8223019462220FFF706F912
:10367000044AFB79137600BF0837BD4680BD00BF02
:103680000C0300201400002080B582B000AF034678
:10369000FB71104B1B68563319465A20FFF700F98F
:1036A000FB79002B05D00B4B1B68872283F8562033
:1036B00004E0084B1B68842283F85620054B1B68E6
:1036C00093F8563019465A20FFF7D8F800BF08374C
:1036D000BD4680BD0C03002080B582B000AF03461C
:1036E000FB80164B1B681E33022219461E20FFF773
:1036F00021F9124B1B689B7F5BB223F003035AB284
:10370000FB881B0A9BB25BB203F003035BB213435B
:103710005AB20A4B1B68D2B29A77084B1B68FA88D8
:10372000D2B2DA77054B1B681E33022219461E20DF
:10373000FFF7C6F800BF0837BD4680BD0C03002068
:1037400080B582B000AF0346FB71104B1B681D3380
:1037500019461D20FFF7A4F80C4B1B685B7F5BB27A
:1037600023F001035AB297F9073013435AB2074BBB
:103770001B68D2B25A77054B1B685B7F19461D2028
:10378000FFF77CF800BF0837BD4680BD0C03002062
:1037900080B582B000AF0346FB71124B1B682F331C
:1037A00019463120FFF77CF80E4B1B6893F82F3039
:1037B0005BB223F007035AB297F9073013435AB2AA
:1037C000084B1B68D2B283F82F20064B1B6893F876
:1037D0002F3019463120FFF751F800BF0837BD469A
:1037E00080BD00BF0C03002080B500AF0A4B0B4A20
:1037F0001A600B4B094A1A60FFF720F800F014F822
:10380000084B01221A70074B1B78184600F030F85D
:10381000FFF70CF900BF80BD080300201003002053
:103820000C030020AA02002080B582B000AF012066
:10383000FFF70AF800237B6002E07B6801337B60BE
:103840007B6840F6B7329342F7DD0020FEF7FCFFBD
:1038500000233B6002E03B6801333B603B6844F27D
:103860004F629342F7DD00BF0837BD4680BD0000C0
:1038700080B582B000AF0346FB712F4B1B78FA79FD
:103880009A4255D02C4AFB7913702C4AFB7913705D
:103890002A4B1B78002B2ED00020FFF74FF9284B26
:1038A0001B685A78264B1B6862F07F02D2B25A70AE
:1038B000234B1B685B7819460120FEF7DFFF0120D0
:1038C000FFF73CF91E4B1B68002283F83C201C4B81
:1038D0001B68002283F83D20194B1B683C330222F1
:1038E00019464020FEF7ECFF164B6F2219460120C7
:1038F000FFF720F81DE00020FFF720F9104B1B68B0
:103900005A780F4B1B6802F07F02D2B25A700C4BF0
:103910001B685B7819460120FEF7B0FF0120FFF716
:103920000DF9084B6F2219460120FFF703F800E05C
:1039300000BF0837BD4680BDAB020020AA020020B0
:103940000C0300201103002080B582B000AF786026
:103950000B467B800A4B1B7883F00103DBB2002B04
:1039600005D07B8819467868FEF74AFF04E07B881B
:1039700019467868FFF738F900BF0837BD4680BDA3
:10398000AA02002080B500AF074B1B7883F001032B
:10399000DBB2002B03D0FFF747F9034602E0FFF745
:1039A00043F90346184680BDAA02002080B400AF48
:1039B000154B1B68144A43F480731360124B9A68CA
:1039C0001149124B13408B600F4B1B680E4A23F0BA
:1039D000885323F0011313600B4B1B680A4A23F42E
:1039E00080231360084B9B68074A23F47D03936090
:1039F000054B0022DA60064B4FF000629A6000BF70
:103A0000BD4680BC704700BF003802400CC0FF8834
:103A100000ED00E0002103E00B4B5B584350043104
:103A20000A480B4B42189A42F6D30A4A02E0002396
:103A300042F8043B084B9A42F9D3FFF7B7FF00F076
:103A40000FF8FEF705FD7047E03B0008000000207E
:103A5000380000203800002080030020FEE700002E
:103A600070B500250C4E0D4CA41BA410A54209D125
:103A700000F02EF800250A4E0A4CA41BA410A54203
:103A800005D170BD56F8253098470135EEE756F858
:103A9000253098470135F2E7D83B0008D83B0008AD
:103AA000D83B0008DC3B000810B5431E0A44914295
:103AB00000D110BD11F8014B03F8014FF7E70346A1
:103AC0000244934200D1704703F8011BF9E700005C
:103AD000F8B500BFF8BC08BC9E467047F8B500BFFB
:083AE000F8BC08BC9E467047CB
:103AE80020AEA036E07D0B37A017083660F0AF3661
:103AF80060F0AF36403D2E36C0AFD235000D993656
:103B080020A5633680A331374061223760DE353621
:103B180040466B36A032BF36A032BF36A00ECB353A
:103B2800E0625436A0443937A00ECB35809AF4367B
:103B3800001F1337E050DA3540466B36809AF4366A
:103B480080A33137807F3D360016D636A03BFC3641
:103B5800C0C14C36809AF43660DE353680A33137E2
:103B6800809AF4368091B73660022A3700FB1E36F9
:103B780060F0AF36A0443937209C2636000D9936C0
:103B880060D5F835000D9936C0AFD2354034F135DF
:103B9800C0CA893640466B36C0B80F36807F3D367E
:103BA800A044393760022A37C0C14C3603040608DE
:103BB8000C10182030000000000000000000000079
:103BC80001020304060708090000000001020304BB
:043BD800650100087B
:043BDC00410100089B
:103BE00010000000010000000102030405060708A0
:103BF000090A00008025DB331402070201000100DE
:103C00000400000064000000640000008000000068
:083C10000101010068FF1F0023
:0400000508003A15A0
:00000001FF
